{
  "contractName": "BlockStreetGovonor",
  "abi": [
    {
      "inputs": [
        {
          "internalType": "contract IVotes",
          "name": "_token",
          "type": "address"
        },
        {
          "internalType": "contract TimelockController",
          "name": "_timelock",
          "type": "address"
        }
      ],
      "stateMutability": "nonpayable",
      "type": "constructor"
    },
    {
      "anonymous": false,
      "inputs": [
        {
          "indexed": false,
          "internalType": "uint256",
          "name": "proposalId",
          "type": "uint256"
        }
      ],
      "name": "ProposalCanceled",
      "type": "event"
    },
    {
      "anonymous": false,
      "inputs": [
        {
          "indexed": false,
          "internalType": "uint256",
          "name": "proposalId",
          "type": "uint256"
        },
        {
          "indexed": false,
          "internalType": "address",
          "name": "proposer",
          "type": "address"
        },
        {
          "indexed": false,
          "internalType": "address[]",
          "name": "targets",
          "type": "address[]"
        },
        {
          "indexed": false,
          "internalType": "uint256[]",
          "name": "values",
          "type": "uint256[]"
        },
        {
          "indexed": false,
          "internalType": "string[]",
          "name": "signatures",
          "type": "string[]"
        },
        {
          "indexed": false,
          "internalType": "bytes[]",
          "name": "calldatas",
          "type": "bytes[]"
        },
        {
          "indexed": false,
          "internalType": "uint256",
          "name": "startBlock",
          "type": "uint256"
        },
        {
          "indexed": false,
          "internalType": "uint256",
          "name": "endBlock",
          "type": "uint256"
        },
        {
          "indexed": false,
          "internalType": "string",
          "name": "description",
          "type": "string"
        }
      ],
      "name": "ProposalCreated",
      "type": "event"
    },
    {
      "anonymous": false,
      "inputs": [
        {
          "indexed": false,
          "internalType": "uint256",
          "name": "proposalId",
          "type": "uint256"
        }
      ],
      "name": "ProposalExecuted",
      "type": "event"
    },
    {
      "anonymous": false,
      "inputs": [
        {
          "indexed": false,
          "internalType": "uint256",
          "name": "proposalId",
          "type": "uint256"
        },
        {
          "indexed": false,
          "internalType": "uint256",
          "name": "eta",
          "type": "uint256"
        }
      ],
      "name": "ProposalQueued",
      "type": "event"
    },
    {
      "anonymous": false,
      "inputs": [
        {
          "indexed": false,
          "internalType": "uint256",
          "name": "oldProposalThreshold",
          "type": "uint256"
        },
        {
          "indexed": false,
          "internalType": "uint256",
          "name": "newProposalThreshold",
          "type": "uint256"
        }
      ],
      "name": "ProposalThresholdSet",
      "type": "event"
    },
    {
      "anonymous": false,
      "inputs": [
        {
          "indexed": false,
          "internalType": "uint256",
          "name": "oldQuorumNumerator",
          "type": "uint256"
        },
        {
          "indexed": false,
          "internalType": "uint256",
          "name": "newQuorumNumerator",
          "type": "uint256"
        }
      ],
      "name": "QuorumNumeratorUpdated",
      "type": "event"
    },
    {
      "anonymous": false,
      "inputs": [
        {
          "indexed": false,
          "internalType": "address",
          "name": "oldTimelock",
          "type": "address"
        },
        {
          "indexed": false,
          "internalType": "address",
          "name": "newTimelock",
          "type": "address"
        }
      ],
      "name": "TimelockChange",
      "type": "event"
    },
    {
      "anonymous": false,
      "inputs": [
        {
          "indexed": true,
          "internalType": "address",
          "name": "voter",
          "type": "address"
        },
        {
          "indexed": false,
          "internalType": "uint256",
          "name": "proposalId",
          "type": "uint256"
        },
        {
          "indexed": false,
          "internalType": "uint8",
          "name": "support",
          "type": "uint8"
        },
        {
          "indexed": false,
          "internalType": "uint256",
          "name": "weight",
          "type": "uint256"
        },
        {
          "indexed": false,
          "internalType": "string",
          "name": "reason",
          "type": "string"
        }
      ],
      "name": "VoteCast",
      "type": "event"
    },
    {
      "anonymous": false,
      "inputs": [
        {
          "indexed": false,
          "internalType": "uint256",
          "name": "oldVotingDelay",
          "type": "uint256"
        },
        {
          "indexed": false,
          "internalType": "uint256",
          "name": "newVotingDelay",
          "type": "uint256"
        }
      ],
      "name": "VotingDelaySet",
      "type": "event"
    },
    {
      "anonymous": false,
      "inputs": [
        {
          "indexed": false,
          "internalType": "uint256",
          "name": "oldVotingPeriod",
          "type": "uint256"
        },
        {
          "indexed": false,
          "internalType": "uint256",
          "name": "newVotingPeriod",
          "type": "uint256"
        }
      ],
      "name": "VotingPeriodSet",
      "type": "event"
    },
    {
      "inputs": [],
      "name": "BALLOT_TYPEHASH",
      "outputs": [
        {
          "internalType": "bytes32",
          "name": "",
          "type": "bytes32"
        }
      ],
      "stateMutability": "view",
      "type": "function",
      "constant": true
    },
    {
      "inputs": [],
      "name": "COUNTING_MODE",
      "outputs": [
        {
          "internalType": "string",
          "name": "",
          "type": "string"
        }
      ],
      "stateMutability": "pure",
      "type": "function",
      "constant": true
    },
    {
      "inputs": [
        {
          "internalType": "uint256",
          "name": "proposalId",
          "type": "uint256"
        },
        {
          "internalType": "uint8",
          "name": "support",
          "type": "uint8"
        }
      ],
      "name": "castVote",
      "outputs": [
        {
          "internalType": "uint256",
          "name": "",
          "type": "uint256"
        }
      ],
      "stateMutability": "nonpayable",
      "type": "function"
    },
    {
      "inputs": [
        {
          "internalType": "uint256",
          "name": "proposalId",
          "type": "uint256"
        },
        {
          "internalType": "uint8",
          "name": "support",
          "type": "uint8"
        },
        {
          "internalType": "uint8",
          "name": "v",
          "type": "uint8"
        },
        {
          "internalType": "bytes32",
          "name": "r",
          "type": "bytes32"
        },
        {
          "internalType": "bytes32",
          "name": "s",
          "type": "bytes32"
        }
      ],
      "name": "castVoteBySig",
      "outputs": [
        {
          "internalType": "uint256",
          "name": "",
          "type": "uint256"
        }
      ],
      "stateMutability": "nonpayable",
      "type": "function"
    },
    {
      "inputs": [
        {
          "internalType": "uint256",
          "name": "proposalId",
          "type": "uint256"
        },
        {
          "internalType": "uint8",
          "name": "support",
          "type": "uint8"
        },
        {
          "internalType": "string",
          "name": "reason",
          "type": "string"
        }
      ],
      "name": "castVoteWithReason",
      "outputs": [
        {
          "internalType": "uint256",
          "name": "",
          "type": "uint256"
        }
      ],
      "stateMutability": "nonpayable",
      "type": "function"
    },
    {
      "inputs": [
        {
          "internalType": "address[]",
          "name": "targets",
          "type": "address[]"
        },
        {
          "internalType": "uint256[]",
          "name": "values",
          "type": "uint256[]"
        },
        {
          "internalType": "bytes[]",
          "name": "calldatas",
          "type": "bytes[]"
        },
        {
          "internalType": "bytes32",
          "name": "descriptionHash",
          "type": "bytes32"
        }
      ],
      "name": "execute",
      "outputs": [
        {
          "internalType": "uint256",
          "name": "",
          "type": "uint256"
        }
      ],
      "stateMutability": "payable",
      "type": "function",
      "payable": true
    },
    {
      "inputs": [
        {
          "internalType": "uint256",
          "name": "proposalId",
          "type": "uint256"
        },
        {
          "internalType": "address",
          "name": "account",
          "type": "address"
        }
      ],
      "name": "hasVoted",
      "outputs": [
        {
          "internalType": "bool",
          "name": "",
          "type": "bool"
        }
      ],
      "stateMutability": "view",
      "type": "function",
      "constant": true
    },
    {
      "inputs": [
        {
          "internalType": "address[]",
          "name": "targets",
          "type": "address[]"
        },
        {
          "internalType": "uint256[]",
          "name": "values",
          "type": "uint256[]"
        },
        {
          "internalType": "bytes[]",
          "name": "calldatas",
          "type": "bytes[]"
        },
        {
          "internalType": "bytes32",
          "name": "descriptionHash",
          "type": "bytes32"
        }
      ],
      "name": "hashProposal",
      "outputs": [
        {
          "internalType": "uint256",
          "name": "",
          "type": "uint256"
        }
      ],
      "stateMutability": "pure",
      "type": "function",
      "constant": true
    },
    {
      "inputs": [],
      "name": "name",
      "outputs": [
        {
          "internalType": "string",
          "name": "",
          "type": "string"
        }
      ],
      "stateMutability": "view",
      "type": "function",
      "constant": true
    },
    {
      "inputs": [
        {
          "internalType": "uint256",
          "name": "proposalId",
          "type": "uint256"
        }
      ],
      "name": "proposalDeadline",
      "outputs": [
        {
          "internalType": "uint256",
          "name": "",
          "type": "uint256"
        }
      ],
      "stateMutability": "view",
      "type": "function",
      "constant": true
    },
    {
      "inputs": [
        {
          "internalType": "uint256",
          "name": "proposalId",
          "type": "uint256"
        }
      ],
      "name": "proposalEta",
      "outputs": [
        {
          "internalType": "uint256",
          "name": "",
          "type": "uint256"
        }
      ],
      "stateMutability": "view",
      "type": "function",
      "constant": true
    },
    {
      "inputs": [
        {
          "internalType": "uint256",
          "name": "proposalId",
          "type": "uint256"
        }
      ],
      "name": "proposalSnapshot",
      "outputs": [
        {
          "internalType": "uint256",
          "name": "",
          "type": "uint256"
        }
      ],
      "stateMutability": "view",
      "type": "function",
      "constant": true
    },
    {
      "inputs": [
        {
          "internalType": "uint256",
          "name": "proposalId",
          "type": "uint256"
        }
      ],
      "name": "proposalVotes",
      "outputs": [
        {
          "internalType": "uint256",
          "name": "againstVotes",
          "type": "uint256"
        },
        {
          "internalType": "uint256",
          "name": "forVotes",
          "type": "uint256"
        },
        {
          "internalType": "uint256",
          "name": "abstainVotes",
          "type": "uint256"
        }
      ],
      "stateMutability": "view",
      "type": "function",
      "constant": true
    },
    {
      "inputs": [
        {
          "internalType": "address[]",
          "name": "targets",
          "type": "address[]"
        },
        {
          "internalType": "uint256[]",
          "name": "values",
          "type": "uint256[]"
        },
        {
          "internalType": "bytes[]",
          "name": "calldatas",
          "type": "bytes[]"
        },
        {
          "internalType": "bytes32",
          "name": "descriptionHash",
          "type": "bytes32"
        }
      ],
      "name": "queue",
      "outputs": [
        {
          "internalType": "uint256",
          "name": "",
          "type": "uint256"
        }
      ],
      "stateMutability": "nonpayable",
      "type": "function"
    },
    {
      "inputs": [],
      "name": "quorumDenominator",
      "outputs": [
        {
          "internalType": "uint256",
          "name": "",
          "type": "uint256"
        }
      ],
      "stateMutability": "view",
      "type": "function",
      "constant": true
    },
    {
      "inputs": [],
      "name": "quorumNumerator",
      "outputs": [
        {
          "internalType": "uint256",
          "name": "",
          "type": "uint256"
        }
      ],
      "stateMutability": "view",
      "type": "function",
      "constant": true
    },
    {
      "inputs": [
        {
          "internalType": "address",
          "name": "target",
          "type": "address"
        },
        {
          "internalType": "uint256",
          "name": "value",
          "type": "uint256"
        },
        {
          "internalType": "bytes",
          "name": "data",
          "type": "bytes"
        }
      ],
      "name": "relay",
      "outputs": [],
      "stateMutability": "nonpayable",
      "type": "function"
    },
    {
      "inputs": [
        {
          "internalType": "uint256",
          "name": "newProposalThreshold",
          "type": "uint256"
        }
      ],
      "name": "setProposalThreshold",
      "outputs": [],
      "stateMutability": "nonpayable",
      "type": "function"
    },
    {
      "inputs": [
        {
          "internalType": "uint256",
          "name": "newVotingDelay",
          "type": "uint256"
        }
      ],
      "name": "setVotingDelay",
      "outputs": [],
      "stateMutability": "nonpayable",
      "type": "function"
    },
    {
      "inputs": [
        {
          "internalType": "uint256",
          "name": "newVotingPeriod",
          "type": "uint256"
        }
      ],
      "name": "setVotingPeriod",
      "outputs": [],
      "stateMutability": "nonpayable",
      "type": "function"
    },
    {
      "inputs": [],
      "name": "timelock",
      "outputs": [
        {
          "internalType": "address",
          "name": "",
          "type": "address"
        }
      ],
      "stateMutability": "view",
      "type": "function",
      "constant": true
    },
    {
      "inputs": [],
      "name": "token",
      "outputs": [
        {
          "internalType": "contract IVotes",
          "name": "",
          "type": "address"
        }
      ],
      "stateMutability": "view",
      "type": "function",
      "constant": true
    },
    {
      "inputs": [
        {
          "internalType": "uint256",
          "name": "newQuorumNumerator",
          "type": "uint256"
        }
      ],
      "name": "updateQuorumNumerator",
      "outputs": [],
      "stateMutability": "nonpayable",
      "type": "function"
    },
    {
      "inputs": [
        {
          "internalType": "contract TimelockController",
          "name": "newTimelock",
          "type": "address"
        }
      ],
      "name": "updateTimelock",
      "outputs": [],
      "stateMutability": "nonpayable",
      "type": "function"
    },
    {
      "inputs": [],
      "name": "version",
      "outputs": [
        {
          "internalType": "string",
          "name": "",
          "type": "string"
        }
      ],
      "stateMutability": "view",
      "type": "function",
      "constant": true
    },
    {
      "stateMutability": "payable",
      "type": "receive",
      "payable": true
    },
    {
      "inputs": [],
      "name": "votingDelay",
      "outputs": [
        {
          "internalType": "uint256",
          "name": "",
          "type": "uint256"
        }
      ],
      "stateMutability": "view",
      "type": "function",
      "constant": true
    },
    {
      "inputs": [],
      "name": "votingPeriod",
      "outputs": [
        {
          "internalType": "uint256",
          "name": "",
          "type": "uint256"
        }
      ],
      "stateMutability": "view",
      "type": "function",
      "constant": true
    },
    {
      "inputs": [
        {
          "internalType": "uint256",
          "name": "blockNumber",
          "type": "uint256"
        }
      ],
      "name": "quorum",
      "outputs": [
        {
          "internalType": "uint256",
          "name": "",
          "type": "uint256"
        }
      ],
      "stateMutability": "view",
      "type": "function",
      "constant": true
    },
    {
      "inputs": [
        {
          "internalType": "address",
          "name": "account",
          "type": "address"
        },
        {
          "internalType": "uint256",
          "name": "blockNumber",
          "type": "uint256"
        }
      ],
      "name": "getVotes",
      "outputs": [
        {
          "internalType": "uint256",
          "name": "",
          "type": "uint256"
        }
      ],
      "stateMutability": "view",
      "type": "function",
      "constant": true
    },
    {
      "inputs": [
        {
          "internalType": "uint256",
          "name": "proposalId",
          "type": "uint256"
        }
      ],
      "name": "state",
      "outputs": [
        {
          "internalType": "enum IGovernor.ProposalState",
          "name": "",
          "type": "uint8"
        }
      ],
      "stateMutability": "view",
      "type": "function",
      "constant": true
    },
    {
      "inputs": [
        {
          "internalType": "address[]",
          "name": "targets",
          "type": "address[]"
        },
        {
          "internalType": "uint256[]",
          "name": "values",
          "type": "uint256[]"
        },
        {
          "internalType": "bytes[]",
          "name": "calldatas",
          "type": "bytes[]"
        },
        {
          "internalType": "string",
          "name": "description",
          "type": "string"
        }
      ],
      "name": "propose",
      "outputs": [
        {
          "internalType": "uint256",
          "name": "",
          "type": "uint256"
        }
      ],
      "stateMutability": "nonpayable",
      "type": "function"
    },
    {
      "inputs": [],
      "name": "proposalThreshold",
      "outputs": [
        {
          "internalType": "uint256",
          "name": "",
          "type": "uint256"
        }
      ],
      "stateMutability": "view",
      "type": "function",
      "constant": true
    },
    {
      "inputs": [
        {
          "internalType": "bytes4",
          "name": "interfaceId",
          "type": "bytes4"
        }
      ],
      "name": "supportsInterface",
      "outputs": [
        {
          "internalType": "bool",
          "name": "",
          "type": "bool"
        }
      ],
      "stateMutability": "view",
      "type": "function",
      "constant": true
    }
  ],
  "bytecode": "0x6101606040523480156200001257600080fd5b506040516200328a3803806200328a833981016040819052620000359162000499565b8060048360016003600060405180604001604052806012815260200171213637b1b5a9ba3932b2ba23b7bb37b737b960711b815250806200007b6200017c60201b60201c565b815160208084019190912082518383012060e08290526101008190524660a0818152604080517f8b73c3c69bb8fe3d512ecc4cf759cc79239f7b179b0ffacaa9a75d522b39400f81880181905281830187905260608201869052608082019490945230818401528151808203909301835260c00190528051940193909320919290916080523060601b60c0526101205250508251620001249250600091506020840190620003f3565b506200013290508362000197565b6200013d82620001d8565b62000148816200027f565b50505060601b6001600160601b031916610140526200016781620002c0565b5062000173816200038a565b5050506200052e565b6040805180820190915260018152603160f81b602082015290565b60025460408051918252602082018390527fc565b045403dc03c2eea82b81a0465edad9e2e7fc4d97e11421c209da93d7a93910160405180910390a1600255565b600081116200023e5760405162461bcd60e51b815260206004820152602760248201527f476f7665726e6f7253657474696e67733a20766f74696e6720706572696f6420604482015266746f6f206c6f7760c81b60648201526084015b60405180910390fd5b60035460408051918252602082018390527f7e3f7f0708a84de9203036abaa450dccc85ad5ff52f78c170f3edb55cf5e8828910160405180910390a1600355565b60045460408051918252602082018390527fccb45da8d5717e6c4544694297c4ba5cf151d455c9bb0ed4fc7a38411bc05461910160405180910390a1600455565b6064811115620003455760405162461bcd60e51b815260206004820152604360248201527f476f7665726e6f72566f74657351756f72756d4672616374696f6e3a2071756f60448201527f72756d4e756d657261746f72206f7665722071756f72756d44656e6f6d696e616064820152623a37b960e91b608482015260a40162000235565b600680549082905560408051828152602081018490527f0553476bf02ef2726e8ce5ced78d63e26e602e4a2257b1f559418e24b4633997910160405180910390a15050565b600754604080516001600160a01b03928316815291831660208301527f08f74ea46ef7894f65eabfb5e6e695de773a000b47c529ab559178069b226401910160405180910390a1600780546001600160a01b0319166001600160a01b0392909216919091179055565b8280546200040190620004d8565b90600052602060002090601f01602090048101928262000425576000855562000470565b82601f106200044057805160ff191683800117855562000470565b8280016001018555821562000470579182015b828111156200047057825182559160200191906001019062000453565b506200047e92915062000482565b5090565b5b808211156200047e576000815560010162000483565b60008060408385031215620004ad57600080fd5b8251620004ba8162000515565b6020840151909250620004cd8162000515565b809150509250929050565b600181811c90821680620004ed57607f821691505b602082108114156200050f57634e487b7160e01b600052602260045260246000fd5b50919050565b6001600160a01b03811681146200052b57600080fd5b50565b60805160a05160c05160601c60e05161010051610120516101405160601c612ced6200059d60003960008181610647015281816116b3015261178c01526000611955015260006119a40152600061197f015260006118d8015260006119020152600061192c0152612ced6000f3fe6080604052600436106101825760003560e01c806301ffc9a7146101aa57806302a251a3146101df57806306f3f9e61461020257806306fdde0314610222578063160cbed7146102445780632656227d146102645780632d63f693146102775780633932abb1146102975780633bccf4fd146102ac5780633e4f49e6146102cc57806343859632146102f9578063544ffc9c1461034357806354fd4d501461039857806356781388146103c257806370b0f660146103e25780637b3c71d3146104025780637d5e81e21461042257806397c3d33414610442578063a7713a7014610456578063a890c9101461046b578063ab58fb8e1461048b578063b58131b0146104ab578063c01f9e37146104c0578063c28bc2fa146104e0578063c59057e414610500578063d33219b414610520578063dd4e2ba51461054d578063deaaa7cc14610593578063ea0217cf146105b5578063eb9019d4146105d5578063ece40cc1146105f5578063f8ce560a14610615578063fc0c546a1461063557600080fd5b366101a55730610190610669565b6001600160a01b0316146101a357600080fd5b005b600080fd5b3480156101b657600080fd5b506101ca6101c536600461256d565b610678565b60405190151581526020015b60405180910390f35b3480156101eb57600080fd5b506101f4610689565b6040519081526020016101d6565b34801561020e57600080fd5b506101a361021d3660046125b4565b610694565b34801561022e57600080fd5b506102376106e1565b6040516101d691906128d2565b34801561025057600080fd5b506101f461025f3660046123e3565b610773565b6101f46102723660046123e3565b61098f565b34801561028357600080fd5b506101f46102923660046125b4565b610a62565b3480156102a357600080fd5b506101f4610a99565b3480156102b857600080fd5b506101f46102c736600461266a565b610aa4565b3480156102d857600080fd5b506102ec6102e73660046125b4565b610b26565b6040516101d691906128aa565b34801561030557600080fd5b506101ca6103143660046125cd565b60008281526005602090815260408083206001600160a01b038516845260030190915290205460ff1692915050565b34801561034f57600080fd5b5061037d61035e3660046125b4565b6000908152600560205260409020805460018201546002909201549092565b604080519384526020840192909252908201526060016101d6565b3480156103a457600080fd5b506040805180820190915260018152603160f81b6020820152610237565b3480156103ce57600080fd5b506101f46103dd3660046125fd565b610b31565b3480156103ee57600080fd5b506101a36103fd3660046125b4565b610b5a565b34801561040e57600080fd5b506101f461041d366004612629565b610b9b565b34801561042e57600080fd5b506101f461043d366004612472565b610bed565b34801561044e57600080fd5b5060646101f4565b34801561046257600080fd5b506006546101f4565b34801561047757600080fd5b506101a3610486366004612597565b610c04565b34801561049757600080fd5b506101f46104a63660046125b4565b610c45565b3480156104b757600080fd5b506101f4610cef565b3480156104cc57600080fd5b506101f46104db3660046125b4565b610cfa565b3480156104ec57600080fd5b506101a36104fb366004612388565b610d29565b34801561050c57600080fd5b506101f461051b3660046123e3565b610daa565b34801561052c57600080fd5b50610535610de4565b6040516001600160a01b0390911681526020016101d6565b34801561055957600080fd5b506040805180820190915260208082527f737570706f72743d627261766f2671756f72756d3d666f722c6162737461696e90820152610237565b34801561059f57600080fd5b506101f4600080516020612c6f83398151915281565b3480156105c157600080fd5b506101a36105d03660046125b4565b610df3565b3480156105e157600080fd5b506101f46105f036600461235c565b610e34565b34801561060157600080fd5b506101a36106103660046125b4565b610e40565b34801561062157600080fd5b506101f46106303660046125b4565b610e81565b34801561064157600080fd5b506105357f000000000000000000000000000000000000000000000000000000000000000081565b6000610673610de4565b905090565b600061068382610e8c565b92915050565b600061067360035490565b61069c610669565b6001600160a01b0316336001600160a01b0316146106d55760405162461bcd60e51b81526004016106cc906128e5565b60405180910390fd5b6106de81610eb1565b50565b6060600080546106f090612bdc565b80601f016020809104026020016040519081016040528092919081815260200182805461071c90612bdc565b80156107695780601f1061073e57610100808354040283529160200191610769565b820191906000526020600020905b81548152906001019060200180831161074c57829003601f168201915b5050505050905090565b60008061078286868686610daa565b9050600461078f82610b26565b60078111156107a0576107a0612c2d565b146107bd5760405162461bcd60e51b81526004016106cc90612958565b6007546040805163793d064960e11b815290516000926001600160a01b03169163f27a0c92916004808301926020929190829003018186803b15801561080257600080fd5b505afa158015610816573d6000803e3d6000fd5b505050506040513d601f19601f8201168201806040525081019061083a9190612554565b60075460405163b1c5f42760e01b81529192506001600160a01b03169063b1c5f42790610874908a908a908a906000908b90600401612804565b60206040518083038186803b15801561088c57600080fd5b505afa1580156108a0573d6000803e3d6000fd5b505050506040513d601f19601f820116820180604052508101906108c49190612554565b6000838152600860205260408082209290925560075491516308f2a0bb60e41b81526001600160a01b0390921691638f2a0bb09161090f918b918b918b91908b908990600401612852565b600060405180830381600087803b15801561092957600080fd5b505af115801561093d573d6000803e3d6000fd5b505050507f9a2e42fd6722813d69113e7d0079d3d940171428df7373df9c7f7617cfda289282824261096f9190612b11565b60405161097d929190612a88565b60405180910390a15095945050505050565b60008061099e86868686610daa565b905060006109ab82610b26565b905060048160078111156109c1576109c1612c2d565b14806109de575060058160078111156109dc576109dc612c2d565b145b6109fa5760405162461bcd60e51b81526004016106cc90612958565b600082815260016020818152604092839020600201805460ff191690921790915590518381527f712ae1383f79ac853f8d882153778e0260ef8f03b504e2866e0593e04d2b291f910160405180910390a1610a588288888888610f7a565b5095945050505050565b60008181526001602090815260408083208151928301909152546001600160401b0316908190525b6001600160401b031692915050565b600061067360025490565b60408051600080516020612c6f833981519152602082015290810186905260ff851660608201526000908190610afe90610af69060800160405160208183030381529060405280519060200120610f87565b868686610fd5565b9050610b1b87828860405180602001604052806000815250610ff3565b979650505050505050565b6000610683826110fe565b600080339050610b5284828560405180602001604052806000815250610ff3565b949350505050565b610b62610669565b6001600160a01b0316336001600160a01b031614610b925760405162461bcd60e51b81526004016106cc906128e5565b6106de81611266565b600080339050610be386828787878080601f016020809104026020016040519081016040528093929190818152602001838380828437600092019190915250610ff392505050565b9695505050505050565b6000610bfb858585856112a6565b95945050505050565b610c0c610669565b6001600160a01b0316336001600160a01b031614610c3c5760405162461bcd60e51b81526004016106cc906128e5565b6106de8161155b565b60075460008281526008602052604080822054905163d45c443560e01b81526004810191909152909182916001600160a01b039091169063d45c44359060240160206040518083038186803b158015610c9d57600080fd5b505afa158015610cb1573d6000803e3d6000fd5b505050506040513d601f19601f82011682018060405250810190610cd59190612554565b905080600114610ce55780610ce8565b60005b9392505050565b600061067360045490565b60008181526001602081815260408084208151928301909152909101546001600160401b031690819052610a8a565b610d31610669565b6001600160a01b0316336001600160a01b031614610d615760405162461bcd60e51b81526004016106cc906128e5565b610da38483838080601f0160208091040260200160405190810160405280939291908181526020018383808284376000920191909152508892506115c4915050565b5050505050565b600084848484604051602001610dc394939291906127b9565b60408051601f19818403018152919052805160209091012095945050505050565b6007546001600160a01b031690565b610dfb610669565b6001600160a01b0316336001600160a01b031614610e2b5760405162461bcd60e51b81526004016106cc906128e5565b6106de816115ea565b6000610ce8838361168a565b610e48610669565b6001600160a01b0316336001600160a01b031614610e785760405162461bcd60e51b81526004016106cc906128e5565b6106de8161172f565b60006106838261176f565b60006001600160e01b03198216636e665ced60e01b1480610683575061068382611822565b6064811115610f345760405162461bcd60e51b815260206004820152604360248201527f476f7665726e6f72566f74657351756f72756d4672616374696f6e3a2071756f60448201527f72756d4e756d657261746f72206f7665722071756f72756d44656e6f6d696e616064820152623a37b960e91b608482015260a4016106cc565b60068054908290556040517f0553476bf02ef2726e8ce5ced78d63e26e602e4a2257b1f559418e24b463399790610f6e9083908590612a88565b60405180910390a15050565b610da38585858585611857565b6000610683610f946118cb565b8360405161190160f01b6020820152602281018390526042810182905260009060620160405160208183030381529060405280519060200120905092915050565b6000806000610fe6878787876119f2565b91509150610a5881611ad5565b600084815260016020819052604082209061100d87610b26565b600781111561101e5761101e612c2d565b146110775760405162461bcd60e51b815260206004820152602360248201527f476f7665726e6f723a20766f7465206e6f742063757272656e746c792061637460448201526269766560e81b60648201526084016106cc565b604080516020810190915281546001600160401b03169081905260009061109f908790610e34565b90506110ad87878784611c8b565b856001600160a01b03167fb8e138887d0aa13bab447e82de9d5c1777041ecd21ca36ba824ff1e6c07ddda4888784886040516110ec9493929190612a96565b60405180910390a29695505050505050565b60008061110a83611e0a565b9050600481600781111561112057611120612c2d565b1461112b5792915050565b60008381526008602052604090205480611146575092915050565b600754604051632ab0f52960e01b8152600481018390526001600160a01b0390911690632ab0f5299060240160206040518083038186803b15801561118a57600080fd5b505afa15801561119e573d6000803e3d6000fd5b505050506040513d601f19601f820116820180604052508101906111c29190612532565b156111d1575060079392505050565b600754604051632c258a9f60e11b8152600481018390526001600160a01b039091169063584b153e9060240160206040518083038186803b15801561121557600080fd5b505afa158015611229573d6000803e3d6000fd5b505050506040513d601f19601f8201168201806040525081019061124d9190612532565b1561125c575060059392505050565b5060029392505050565b7fc565b045403dc03c2eea82b81a0465edad9e2e7fc4d97e11421c209da93d7a9360025482604051611299929190612a88565b60405180910390a1600255565b60006112b0610cef565b6112bf336105f0600143612b95565b101561133f5760405162461bcd60e51b815260206004820152604360248201527f476f7665726e6f72436f6d7061746962696c697479427261766f3a2070726f7060448201527f6f73657220766f7465732062656c6f772070726f706f73616c207468726573686064820152621bdb1960ea1b608482015260a4016106cc565b60006113548686868680519060200120610daa565b905084518651146113775760405162461bcd60e51b81526004016106cc90612917565b83518651146113985760405162461bcd60e51b81526004016106cc90612917565b60008651116113e45760405162461bcd60e51b815260206004820152601860248201527711dbdd995c9b9bdc8e88195b5c1d1e481c1c9bdc1bdcd85b60421b60448201526064016106cc565b600081815260016020908152604091829020825191820190925281546001600160401b031690819052156114645760405162461bcd60e51b815260206004820152602160248201527f476f7665726e6f723a2070726f706f73616c20616c72656164792065786973746044820152607360f81b60648201526084016106cc565b6000611476611471610a99565b611f16565b61147f43611f16565b6114899190612b29565b90506000611498611471610689565b6114a29083612b29565b90506114ae8383611f82565b6114bb6001840182611f82565b7f7d84a6263ae0d98d3329bd7b46bb4e8d6f98cd35a7adb45c274c8b7fd5ebd5e084338b8b8d516001600160401b038111156114f9576114f9612c43565b60405190808252806020026020018201604052801561152c57816020015b60608152602001906001900390816115175790505b508c88888e60405161154699989796959493929190612999565b60405180910390a15091979650505050505050565b600754604080516001600160a01b03928316815291831660208301527f08f74ea46ef7894f65eabfb5e6e695de773a000b47c529ab559178069b226401910160405180910390a1600780546001600160a01b0319166001600160a01b0392909216919091179055565b6060610b52848484604051806060016040528060298152602001612c8f60299139611f9f565b6000811161164a5760405162461bcd60e51b815260206004820152602760248201527f476f7665726e6f7253657474696e67733a20766f74696e6720706572696f6420604482015266746f6f206c6f7760c81b60648201526084016106cc565b7f7e3f7f0708a84de9203036abaa450dccc85ad5ff52f78c170f3edb55cf5e88286003548260405161167d929190612a88565b60405180910390a1600355565b604051630748d63560e31b81526001600160a01b038381166004830152602482018390526000917f000000000000000000000000000000000000000000000000000000000000000090911690633a46b1a89060440160206040518083038186803b1580156116f757600080fd5b505afa15801561170b573d6000803e3d6000fd5b505050506040513d601f19601f82011682018060405250810190610ce89190612554565b7fccb45da8d5717e6c4544694297c4ba5cf151d455c9bb0ed4fc7a38411bc0546160045482604051611762929190612a88565b60405180910390a1600455565b60006064600654604051632394e7a360e21b8152600481018590527f00000000000000000000000000000000000000000000000000000000000000006001600160a01b031690638e539e8c9060240160206040518083038186803b1580156117d657600080fd5b505afa1580156117ea573d6000803e3d6000fd5b505050506040513d601f19601f8201168201806040525081019061180e9190612554565b6118189190612b76565b6106839190612b54565b60006001600160e01b0319821663bf26d89760e01b148061068357506301ffc9a760e01b6001600160e01b0319831614610683565b60075460405163e38335e560e01b81526001600160a01b039091169063e38335e5903490611892908890889088906000908990600401612804565b6000604051808303818588803b1580156118ab57600080fd5b505af11580156118bf573d6000803e3d6000fd5b50505050505050505050565b6000306001600160a01b037f00000000000000000000000000000000000000000000000000000000000000001614801561192457507f000000000000000000000000000000000000000000000000000000000000000046145b1561194e57507f000000000000000000000000000000000000000000000000000000000000000090565b50604080517f00000000000000000000000000000000000000000000000000000000000000006020808301919091527f0000000000000000000000000000000000000000000000000000000000000000828401527f000000000000000000000000000000000000000000000000000000000000000060608301524660808301523060a0808401919091528351808403909101815260c0909201909252805191012090565b6000806fa2a8918ca85bafe22016d0b997e4df60600160ff1b03831115611a1f5750600090506003611acc565b8460ff16601b14158015611a3757508460ff16601c14155b15611a485750600090506004611acc565b6040805160008082526020820180845289905260ff881692820192909252606081018690526080810185905260019060a0016020604051602081039080840390855afa158015611a9c573d6000803e3d6000fd5b5050604051601f1901519150506001600160a01b038116611ac557600060019250925050611acc565b9150600090505b94509492505050565b6000816004811115611ae957611ae9612c2d565b1415611af25750565b6001816004811115611b0657611b06612c2d565b1415611b4f5760405162461bcd60e51b815260206004820152601860248201527745434453413a20696e76616c6964207369676e617475726560401b60448201526064016106cc565b6002816004811115611b6357611b63612c2d565b1415611bb15760405162461bcd60e51b815260206004820152601f60248201527f45434453413a20696e76616c6964207369676e6174757265206c656e6774680060448201526064016106cc565b6003816004811115611bc557611bc5612c2d565b1415611c1e5760405162461bcd60e51b815260206004820152602260248201527f45434453413a20696e76616c6964207369676e6174757265202773272076616c604482015261756560f01b60648201526084016106cc565b6004816004811115611c3257611c32612c2d565b14156106de5760405162461bcd60e51b815260206004820152602260248201527f45434453413a20696e76616c6964207369676e6174757265202776272076616c604482015261756560f01b60648201526084016106cc565b60008481526005602090815260408083206001600160a01b0387168452600381019092529091205460ff1615611d135760405162461bcd60e51b815260206004820152602760248201527f476f7665726e6f72566f74696e6753696d706c653a20766f746520616c726561604482015266191e4818d85cdd60ca1b60648201526084016106cc565b6001600160a01b03841660009081526003820160205260408120805460ff1916600117905560ff168360ff161415611d645781816000016000828254611d599190612b11565b90915550610da39050565b60ff831660011415611d845781816001016000828254611d599190612b11565b60ff831660021415611da45781816002016000828254611d599190612b11565b60405162461bcd60e51b815260206004820152603560248201527f476f7665726e6f72566f74696e6753696d706c653a20696e76616c69642076616044820152746c756520666f7220656e756d20566f74655479706560581b60648201526084016106cc565b6000818152600160205260408120600281015460ff1615611e2e5750600792915050565b6002810154610100900460ff1615611e495750600292915050565b6000611e5484610a62565b905080611ea35760405162461bcd60e51b815260206004820152601d60248201527f476f7665726e6f723a20756e6b6e6f776e2070726f706f73616c20696400000060448201526064016106cc565b438110611eb4575060009392505050565b6000611ebf85610cfa565b9050438110611ed357506001949350505050565b611edc856120c5565b8015611efb575060008581526005602052604090208054600190910154115b15611f0b57506004949350505050565b506003949350505050565b60006001600160401b03821115611f7e5760405162461bcd60e51b815260206004820152602660248201527f53616665436173743a2076616c756520646f65736e27742066697420696e203660448201526534206269747360d01b60648201526084016106cc565b5090565b81546001600160401b0319166001600160401b0391909116179055565b6060824710156120005760405162461bcd60e51b815260206004820152602660248201527f416464726573733a20696e73756666696369656e742062616c616e636520666f6044820152651c8818d85b1b60d21b60648201526084016106cc565b6001600160a01b0385163b6120575760405162461bcd60e51b815260206004820152601d60248201527f416464726573733a2063616c6c20746f206e6f6e2d636f6e747261637400000060448201526064016106cc565b600080866001600160a01b03168587604051612073919061279d565b60006040518083038185875af1925050503d80600081146120b0576040519150601f19603f3d011682016040523d82523d6000602084013e6120b5565b606091505b5091509150610b1b8282866120fc565b6000818152600560205260408120600281015460018201546120e79190612b11565b6120f361063085610a62565b11159392505050565b6060831561210b575081610ce8565b82511561211b5782518084602001fd5b8160405162461bcd60e51b81526004016106cc91906128d2565b60006001600160401b0383111561214e5761214e612c43565b612161601f8401601f1916602001612abe565b905082815283838301111561217557600080fd5b828260208301376000602084830101529392505050565b600082601f83011261219d57600080fd5b813560206121b26121ad83612aee565b612abe565b80838252828201915082860187848660051b89010111156121d257600080fd5b60005b858110156121fa5781356121e881612c59565b845292840192908401906001016121d5565b5090979650505050505050565b600082601f83011261221857600080fd5b813560206122286121ad83612aee565b80838252828201915082860187848660051b890101111561224857600080fd5b60005b858110156121fa5781356001600160401b0381111561226957600080fd5b8801603f81018a1361227a57600080fd5b61228b8a8783013560408401612135565b855250928401929084019060010161224b565b600082601f8301126122af57600080fd5b813560206122bf6121ad83612aee565b80838252828201915082860187848660051b89010111156122df57600080fd5b60005b858110156121fa578135845292840192908401906001016122e2565b60008083601f84011261231057600080fd5b5081356001600160401b0381111561232757600080fd5b60208301915083602082850101111561233f57600080fd5b9250929050565b803560ff8116811461235757600080fd5b919050565b6000806040838503121561236f57600080fd5b823561237a81612c59565b946020939093013593505050565b6000806000806060858703121561239e57600080fd5b84356123a981612c59565b93506020850135925060408501356001600160401b038111156123cb57600080fd5b6123d7878288016122fe565b95989497509550505050565b600080600080608085870312156123f957600080fd5b84356001600160401b038082111561241057600080fd5b61241c8883890161218c565b9550602087013591508082111561243257600080fd5b61243e8883890161229e565b9450604087013591508082111561245457600080fd5b5061246187828801612207565b949793965093946060013593505050565b6000806000806080858703121561248857600080fd5b84356001600160401b038082111561249f57600080fd5b6124ab8883890161218c565b955060208701359150808211156124c157600080fd5b6124cd8883890161229e565b945060408701359150808211156124e357600080fd5b6124ef88838901612207565b9350606087013591508082111561250557600080fd5b508501601f8101871361251757600080fd5b61252687823560208401612135565b91505092959194509250565b60006020828403121561254457600080fd5b81518015158114610ce857600080fd5b60006020828403121561256657600080fd5b5051919050565b60006020828403121561257f57600080fd5b81356001600160e01b031981168114610ce857600080fd5b6000602082840312156125a957600080fd5b8135610ce881612c59565b6000602082840312156125c657600080fd5b5035919050565b600080604083850312156125e057600080fd5b8235915060208301356125f281612c59565b809150509250929050565b6000806040838503121561261057600080fd5b8235915061262060208401612346565b90509250929050565b6000806000806060858703121561263f57600080fd5b8435935061264f60208601612346565b925060408501356001600160401b038111156123cb57600080fd5b600080600080600060a0868803121561268257600080fd5b8535945061269260208701612346565b93506126a060408701612346565b94979396509394606081013594506080013592915050565b600081518084526020808501945080840160005b838110156126f15781516001600160a01b0316875295820195908201906001016126cc565b509495945050505050565b6000815180845260208085019450848260051b860182860160005b858110156121fa57838303895261272f838351612771565b98850198925090840190600101612717565b600081518084526020808501945080840160005b838110156126f157815187529582019590820190600101612755565b60008151808452612789816020860160208601612bac565b601f01601f19169290920160200192915050565b600082516127af818460208701612bac565b9190910192915050565b6080815260006127cc60808301876126b8565b82810360208401526127de8187612741565b905082810360408401526127f281866126fc565b91505082606083015295945050505050565b60a08152600061281760a08301886126b8565b82810360208401526128298188612741565b9050828103604084015261283d81876126fc565b60608401959095525050608001529392505050565b60c08152600061286560c08301896126b8565b82810360208401526128778189612741565b9050828103604084015261288b81886126fc565b60608401969096525050608081019290925260a0909101529392505050565b60208101600883106128cc57634e487b7160e01b600052602160045260246000fd5b91905290565b602081526000610ce86020830184612771565b602080825260189082015277476f7665726e6f723a206f6e6c79476f7665726e616e636560401b604082015260600190565b60208082526021908201527f476f7665726e6f723a20696e76616c69642070726f706f73616c206c656e67746040820152600d60fb1b606082015260800190565b60208082526021908201527f476f7665726e6f723a2070726f706f73616c206e6f74207375636365737366756040820152601b60fa1b606082015260800190565b60006101208b8352602060018060a01b038c16818501528160408501526129c28285018c6126b8565b915083820360608501526129d6828b612741565b915083820360808501528189518084528284019150828160051b850101838c0160005b83811015612a2757601f19878403018552612a15838351612771565b948601949250908501906001016129f9565b505086810360a0880152612a3b818c6126fc565b945050505050612a5660c08401876001600160401b03169052565b6001600160401b03851660e0840152828103610100840152612a788185612771565b9c9b505050505050505050505050565b918252602082015260400190565b84815260ff84166020820152826040820152608060608201526000610be36080830184612771565b604051601f8201601f191681016001600160401b0381118282101715612ae657612ae6612c43565b604052919050565b60006001600160401b03821115612b0757612b07612c43565b5060051b60200190565b60008219821115612b2457612b24612c17565b500190565b60006001600160401b03828116848216808303821115612b4b57612b4b612c17565b01949350505050565b600082612b7157634e487b7160e01b600052601260045260246000fd5b500490565b6000816000190483118215151615612b9057612b90612c17565b500290565b600082821015612ba757612ba7612c17565b500390565b60005b83811015612bc7578181015183820152602001612baf565b83811115612bd6576000848401525b50505050565b600181811c90821680612bf057607f821691505b60208210811415612c1157634e487b7160e01b600052602260045260246000fd5b50919050565b634e487b7160e01b600052601160045260246000fd5b634e487b7160e01b600052602160045260246000fd5b634e487b7160e01b600052604160045260246000fd5b6001600160a01b03811681146106de57600080fdfe150214d74d59b7d1e90c73fc22ef3d991dd0a76b046543d4d80ab92d2a50328f416464726573733a206c6f772d6c6576656c2063616c6c20776974682076616c7565206661696c6564a2646970667358221220c01844dbb4c533c976b969aa19420d60d1cfbe6113121019664b3f29c2f9af8564736f6c63430008070033",
  "immutableReferences": {
    "3145": [
      {
        "length": 32,
        "start": 1607
      },
      {
        "length": 32,
        "start": 5811
      },
      {
        "length": 32,
        "start": 6028
      }
    ],
    "7429": [
      {
        "length": 32,
        "start": 6444
      }
    ],
    "7431": [
      {
        "length": 32,
        "start": 6402
      }
    ],
    "7433": [
      {
        "length": 32,
        "start": 6360
      }
    ],
    "7435": [
      {
        "length": 32,
        "start": 6527
      }
    ],
    "7437": [
      {
        "length": 32,
        "start": 6564
      }
    ],
    "7439": [
      {
        "length": 32,
        "start": 6485
      }
    ]
  },
  "source": "// SPDX-License-Identifier: MIT\r\npragma solidity ^0.8.7;\r\n\r\nimport \"@openzeppelin/contracts/governance/Governor.sol\";\r\nimport \"@openzeppelin/contracts/governance/extensions/GovernorSettings.sol\";\r\nimport \"@openzeppelin/contracts/governance/extensions/GovernorCountingSimple.sol\";\r\nimport \"@openzeppelin/contracts/governance/extensions/GovernorVotes.sol\";\r\nimport \"@openzeppelin/contracts/governance/extensions/GovernorVotesQuorumFraction.sol\";\r\nimport \"@openzeppelin/contracts/governance/extensions/GovernorTimelockControl.sol\";\r\n\r\ncontract BlockStreetGovonor is Governor, GovernorSettings, GovernorCountingSimple, GovernorVotes, GovernorVotesQuorumFraction, GovernorTimelockControl {\r\n    constructor(IVotes _token, TimelockController _timelock)\r\n        Governor(\"BlockStreetGovonor\")\r\n        GovernorSettings(1 , 3 , 0)\r\n        GovernorVotes(_token)\r\n        GovernorVotesQuorumFraction(4)\r\n        GovernorTimelockControl(_timelock)\r\n    {}\r\n\r\n    // The following functions are overrides required by Solidity.\r\n\r\n    function votingDelay()\r\n        public\r\n        view\r\n        override(IGovernor, GovernorSettings)\r\n        returns (uint256)\r\n    {\r\n        return super.votingDelay();\r\n    }\r\n\r\n    function votingPeriod()\r\n        public\r\n        view\r\n        override(IGovernor, GovernorSettings)\r\n        returns (uint256)\r\n    {\r\n        return super.votingPeriod();\r\n    }\r\n\r\n    function quorum(uint256 blockNumber)\r\n        public\r\n        view\r\n        override(IGovernor, GovernorVotesQuorumFraction)\r\n        returns (uint256)\r\n    {\r\n        return super.quorum(blockNumber);\r\n    }\r\n\r\n    function getVotes(address account, uint256 blockNumber)\r\n        public\r\n        view\r\n        override(IGovernor, GovernorVotes)\r\n        returns (uint256)\r\n    {\r\n        return super.getVotes(account, blockNumber);\r\n    }\r\n\r\n    function state(uint256 proposalId)\r\n        public\r\n        view\r\n        override(Governor, GovernorTimelockControl)\r\n        returns (ProposalState)\r\n    {\r\n        return super.state(proposalId);\r\n    }\r\n\r\n    function propose(address[] memory targets, uint256[] memory values, bytes[] memory calldatas, string memory description)\r\n        public\r\n        override(Governor, IGovernor)\r\n        returns (uint256)\r\n    {\r\n        return super.propose(targets, values, calldatas, description);\r\n    }\r\n\r\n    function proposalThreshold()\r\n        public\r\n        view\r\n        override(Governor, GovernorSettings)\r\n        returns (uint256)\r\n    {\r\n        return super.proposalThreshold();\r\n    }\r\n\r\n    function _execute(uint256 proposalId, address[] memory targets, uint256[] memory values, bytes[] memory calldatas, bytes32 descriptionHash)\r\n        internal\r\n        override(Governor, GovernorTimelockControl)\r\n    {\r\n        super._execute(proposalId, targets, values, calldatas, descriptionHash);\r\n    }\r\n\r\n    function _cancel(address[] memory targets, uint256[] memory values, bytes[] memory calldatas, bytes32 descriptionHash)\r\n        internal\r\n        override(Governor, GovernorTimelockControl)\r\n        returns (uint256)\r\n    {\r\n        return super._cancel(targets, values, calldatas, descriptionHash);\r\n    }\r\n\r\n    function _executor()\r\n        internal\r\n        view\r\n        override(Governor, GovernorTimelockControl)\r\n        returns (address)\r\n    {\r\n        return super._executor();\r\n    }\r\n\r\n    function supportsInterface(bytes4 interfaceId)\r\n        public\r\n        view\r\n        override(Governor, GovernorTimelockControl)\r\n        returns (bool)\r\n    {\r\n        return super.supportsInterface(interfaceId);\r\n    }\r\n}",
  "sourcePath": "C:\\Users\\USER\\Desktop\\Projects\\Blockstreet dao\\contracts\\governance\\GovonorControl.sol",
  "compiler": {
    "name": "solc",
    "version": "0.8.7+commit.e28d00a7.Emscripten.clang"
  },
  "schemaVersion": "3.4.6",
  "updatedAt": "2022-03-30T22:16:43.409Z",
  "networkType": "ethereum",
  "devdoc": {
    "kind": "dev",
    "methods": {
      "COUNTING_MODE()": {
        "details": "See {IGovernor-COUNTING_MODE}."
      },
      "castVote(uint256,uint8)": {
        "details": "See {IGovernor-castVote}."
      },
      "castVoteBySig(uint256,uint8,uint8,bytes32,bytes32)": {
        "details": "See {IGovernor-castVoteBySig}."
      },
      "castVoteWithReason(uint256,uint8,string)": {
        "details": "See {IGovernor-castVoteWithReason}."
      },
      "execute(address[],uint256[],bytes[],bytes32)": {
        "details": "See {IGovernor-execute}."
      },
      "hasVoted(uint256,address)": {
        "details": "See {IGovernor-hasVoted}."
      },
      "hashProposal(address[],uint256[],bytes[],bytes32)": {
        "details": "See {IGovernor-hashProposal}. The proposal id is produced by hashing the RLC encoded `targets` array, the `values` array, the `calldatas` array and the descriptionHash (bytes32 which itself is the keccak256 hash of the description string). This proposal id can be produced from the proposal data which is part of the {ProposalCreated} event. It can even be computed in advance, before the proposal is submitted. Note that the chainId and the governor address are not part of the proposal id computation. Consequently, the same proposal (with same operation and same description) will have the same id if submitted on multiple governors accross multiple networks. This also means that in order to execute the same operation twice (on the same governor) the proposer will have to change the description in order to avoid proposal id conflicts."
      },
      "name()": {
        "details": "See {IGovernor-name}."
      },
      "proposalDeadline(uint256)": {
        "details": "See {IGovernor-proposalDeadline}."
      },
      "proposalEta(uint256)": {
        "details": "Public accessor to check the eta of a queued proposal"
      },
      "proposalSnapshot(uint256)": {
        "details": "See {IGovernor-proposalSnapshot}."
      },
      "proposalVotes(uint256)": {
        "details": "Accessor to the internal vote counts."
      },
      "queue(address[],uint256[],bytes[],bytes32)": {
        "details": "Function to queue a proposal to the timelock."
      },
      "quorumDenominator()": {
        "details": "Returns the quorum denominator. Defaults to 100, but may be overridden."
      },
      "quorumNumerator()": {
        "details": "Returns the current quorum numerator. See {quorumDenominator}."
      },
      "relay(address,uint256,bytes)": {
        "details": "Relays a transaction or function call to an arbitrary target. In cases where the governance executor is some contract other than the governor itself, like when using a timelock, this function can be invoked in a governance proposal to recover tokens or Ether that was sent to the governor contract by mistake. Note that if the executor is simply the governor itself, use of `relay` is redundant."
      },
      "setProposalThreshold(uint256)": {
        "details": "Update the proposal threshold. This operation can only be performed through a governance proposal. Emits a {ProposalThresholdSet} event."
      },
      "setVotingDelay(uint256)": {
        "details": "Update the voting delay. This operation can only be performed through a governance proposal. Emits a {VotingDelaySet} event."
      },
      "setVotingPeriod(uint256)": {
        "details": "Update the voting period. This operation can only be performed through a governance proposal. Emits a {VotingPeriodSet} event."
      },
      "timelock()": {
        "details": "Public accessor to check the address of the timelock"
      },
      "updateQuorumNumerator(uint256)": {
        "details": "Changes the quorum numerator. Emits a {QuorumNumeratorUpdated} event. Requirements: - Must be called through a governance proposal. - New numerator must be smaller or equal to the denominator."
      },
      "updateTimelock(address)": {
        "details": "Public endpoint to update the underlying timelock instance. Restricted to the timelock itself, so updates must be proposed, scheduled, and executed through governance proposals. CAUTION: It is not recommended to change the timelock while there are other queued governance proposals."
      },
      "version()": {
        "details": "See {IGovernor-version}."
      }
    },
    "version": 1
  },
  "userdoc": {
    "kind": "user",
    "methods": {},
    "version": 1
  }
}