{
  "contractName": "BlockStreetToken",
  "abi": [
    {
      "inputs": [],
      "stateMutability": "nonpayable",
      "type": "constructor"
    },
    {
      "anonymous": false,
      "inputs": [
        {
          "indexed": true,
          "internalType": "address",
          "name": "owner",
          "type": "address"
        },
        {
          "indexed": true,
          "internalType": "address",
          "name": "spender",
          "type": "address"
        },
        {
          "indexed": false,
          "internalType": "uint256",
          "name": "value",
          "type": "uint256"
        }
      ],
      "name": "Approval",
      "type": "event"
    },
    {
      "anonymous": false,
      "inputs": [
        {
          "indexed": true,
          "internalType": "address",
          "name": "delegator",
          "type": "address"
        },
        {
          "indexed": true,
          "internalType": "address",
          "name": "fromDelegate",
          "type": "address"
        },
        {
          "indexed": true,
          "internalType": "address",
          "name": "toDelegate",
          "type": "address"
        }
      ],
      "name": "DelegateChanged",
      "type": "event"
    },
    {
      "anonymous": false,
      "inputs": [
        {
          "indexed": true,
          "internalType": "address",
          "name": "delegate",
          "type": "address"
        },
        {
          "indexed": false,
          "internalType": "uint256",
          "name": "previousBalance",
          "type": "uint256"
        },
        {
          "indexed": false,
          "internalType": "uint256",
          "name": "newBalance",
          "type": "uint256"
        }
      ],
      "name": "DelegateVotesChanged",
      "type": "event"
    },
    {
      "anonymous": false,
      "inputs": [
        {
          "indexed": true,
          "internalType": "address",
          "name": "from",
          "type": "address"
        },
        {
          "indexed": true,
          "internalType": "address",
          "name": "to",
          "type": "address"
        },
        {
          "indexed": false,
          "internalType": "uint256",
          "name": "value",
          "type": "uint256"
        }
      ],
      "name": "Transfer",
      "type": "event"
    },
    {
      "inputs": [],
      "name": "DOMAIN_SEPARATOR",
      "outputs": [
        {
          "internalType": "bytes32",
          "name": "",
          "type": "bytes32"
        }
      ],
      "stateMutability": "view",
      "type": "function",
      "constant": true
    },
    {
      "inputs": [
        {
          "internalType": "address",
          "name": "owner",
          "type": "address"
        },
        {
          "internalType": "address",
          "name": "spender",
          "type": "address"
        }
      ],
      "name": "allowance",
      "outputs": [
        {
          "internalType": "uint256",
          "name": "",
          "type": "uint256"
        }
      ],
      "stateMutability": "view",
      "type": "function",
      "constant": true
    },
    {
      "inputs": [
        {
          "internalType": "address",
          "name": "spender",
          "type": "address"
        },
        {
          "internalType": "uint256",
          "name": "amount",
          "type": "uint256"
        }
      ],
      "name": "approve",
      "outputs": [
        {
          "internalType": "bool",
          "name": "",
          "type": "bool"
        }
      ],
      "stateMutability": "nonpayable",
      "type": "function"
    },
    {
      "inputs": [
        {
          "internalType": "address",
          "name": "account",
          "type": "address"
        }
      ],
      "name": "balanceOf",
      "outputs": [
        {
          "internalType": "uint256",
          "name": "",
          "type": "uint256"
        }
      ],
      "stateMutability": "view",
      "type": "function",
      "constant": true
    },
    {
      "inputs": [
        {
          "internalType": "address",
          "name": "account",
          "type": "address"
        },
        {
          "internalType": "uint32",
          "name": "pos",
          "type": "uint32"
        }
      ],
      "name": "checkpoints",
      "outputs": [
        {
          "components": [
            {
              "internalType": "uint32",
              "name": "fromBlock",
              "type": "uint32"
            },
            {
              "internalType": "uint224",
              "name": "votes",
              "type": "uint224"
            }
          ],
          "internalType": "struct ERC20Votes.Checkpoint",
          "name": "",
          "type": "tuple"
        }
      ],
      "stateMutability": "view",
      "type": "function",
      "constant": true
    },
    {
      "inputs": [],
      "name": "decimals",
      "outputs": [
        {
          "internalType": "uint8",
          "name": "",
          "type": "uint8"
        }
      ],
      "stateMutability": "view",
      "type": "function",
      "constant": true
    },
    {
      "inputs": [
        {
          "internalType": "address",
          "name": "spender",
          "type": "address"
        },
        {
          "internalType": "uint256",
          "name": "subtractedValue",
          "type": "uint256"
        }
      ],
      "name": "decreaseAllowance",
      "outputs": [
        {
          "internalType": "bool",
          "name": "",
          "type": "bool"
        }
      ],
      "stateMutability": "nonpayable",
      "type": "function"
    },
    {
      "inputs": [
        {
          "internalType": "address",
          "name": "delegatee",
          "type": "address"
        }
      ],
      "name": "delegate",
      "outputs": [],
      "stateMutability": "nonpayable",
      "type": "function"
    },
    {
      "inputs": [
        {
          "internalType": "address",
          "name": "delegatee",
          "type": "address"
        },
        {
          "internalType": "uint256",
          "name": "nonce",
          "type": "uint256"
        },
        {
          "internalType": "uint256",
          "name": "expiry",
          "type": "uint256"
        },
        {
          "internalType": "uint8",
          "name": "v",
          "type": "uint8"
        },
        {
          "internalType": "bytes32",
          "name": "r",
          "type": "bytes32"
        },
        {
          "internalType": "bytes32",
          "name": "s",
          "type": "bytes32"
        }
      ],
      "name": "delegateBySig",
      "outputs": [],
      "stateMutability": "nonpayable",
      "type": "function"
    },
    {
      "inputs": [
        {
          "internalType": "address",
          "name": "account",
          "type": "address"
        }
      ],
      "name": "delegates",
      "outputs": [
        {
          "internalType": "address",
          "name": "",
          "type": "address"
        }
      ],
      "stateMutability": "view",
      "type": "function",
      "constant": true
    },
    {
      "inputs": [
        {
          "internalType": "uint256",
          "name": "blockNumber",
          "type": "uint256"
        }
      ],
      "name": "getPastTotalSupply",
      "outputs": [
        {
          "internalType": "uint256",
          "name": "",
          "type": "uint256"
        }
      ],
      "stateMutability": "view",
      "type": "function",
      "constant": true
    },
    {
      "inputs": [
        {
          "internalType": "address",
          "name": "account",
          "type": "address"
        },
        {
          "internalType": "uint256",
          "name": "blockNumber",
          "type": "uint256"
        }
      ],
      "name": "getPastVotes",
      "outputs": [
        {
          "internalType": "uint256",
          "name": "",
          "type": "uint256"
        }
      ],
      "stateMutability": "view",
      "type": "function",
      "constant": true
    },
    {
      "inputs": [
        {
          "internalType": "address",
          "name": "account",
          "type": "address"
        }
      ],
      "name": "getVotes",
      "outputs": [
        {
          "internalType": "uint256",
          "name": "",
          "type": "uint256"
        }
      ],
      "stateMutability": "view",
      "type": "function",
      "constant": true
    },
    {
      "inputs": [
        {
          "internalType": "address",
          "name": "spender",
          "type": "address"
        },
        {
          "internalType": "uint256",
          "name": "addedValue",
          "type": "uint256"
        }
      ],
      "name": "increaseAllowance",
      "outputs": [
        {
          "internalType": "bool",
          "name": "",
          "type": "bool"
        }
      ],
      "stateMutability": "nonpayable",
      "type": "function"
    },
    {
      "inputs": [],
      "name": "name",
      "outputs": [
        {
          "internalType": "string",
          "name": "",
          "type": "string"
        }
      ],
      "stateMutability": "view",
      "type": "function",
      "constant": true
    },
    {
      "inputs": [
        {
          "internalType": "address",
          "name": "owner",
          "type": "address"
        }
      ],
      "name": "nonces",
      "outputs": [
        {
          "internalType": "uint256",
          "name": "",
          "type": "uint256"
        }
      ],
      "stateMutability": "view",
      "type": "function",
      "constant": true
    },
    {
      "inputs": [
        {
          "internalType": "address",
          "name": "account",
          "type": "address"
        }
      ],
      "name": "numCheckpoints",
      "outputs": [
        {
          "internalType": "uint32",
          "name": "",
          "type": "uint32"
        }
      ],
      "stateMutability": "view",
      "type": "function",
      "constant": true
    },
    {
      "inputs": [
        {
          "internalType": "address",
          "name": "owner",
          "type": "address"
        },
        {
          "internalType": "address",
          "name": "spender",
          "type": "address"
        },
        {
          "internalType": "uint256",
          "name": "value",
          "type": "uint256"
        },
        {
          "internalType": "uint256",
          "name": "deadline",
          "type": "uint256"
        },
        {
          "internalType": "uint8",
          "name": "v",
          "type": "uint8"
        },
        {
          "internalType": "bytes32",
          "name": "r",
          "type": "bytes32"
        },
        {
          "internalType": "bytes32",
          "name": "s",
          "type": "bytes32"
        }
      ],
      "name": "permit",
      "outputs": [],
      "stateMutability": "nonpayable",
      "type": "function"
    },
    {
      "inputs": [],
      "name": "s_maxSupply",
      "outputs": [
        {
          "internalType": "uint256",
          "name": "",
          "type": "uint256"
        }
      ],
      "stateMutability": "view",
      "type": "function",
      "constant": true
    },
    {
      "inputs": [],
      "name": "symbol",
      "outputs": [
        {
          "internalType": "string",
          "name": "",
          "type": "string"
        }
      ],
      "stateMutability": "view",
      "type": "function",
      "constant": true
    },
    {
      "inputs": [],
      "name": "totalSupply",
      "outputs": [
        {
          "internalType": "uint256",
          "name": "",
          "type": "uint256"
        }
      ],
      "stateMutability": "view",
      "type": "function",
      "constant": true
    },
    {
      "inputs": [
        {
          "internalType": "address",
          "name": "to",
          "type": "address"
        },
        {
          "internalType": "uint256",
          "name": "amount",
          "type": "uint256"
        }
      ],
      "name": "transfer",
      "outputs": [
        {
          "internalType": "bool",
          "name": "",
          "type": "bool"
        }
      ],
      "stateMutability": "nonpayable",
      "type": "function"
    },
    {
      "inputs": [
        {
          "internalType": "address",
          "name": "from",
          "type": "address"
        },
        {
          "internalType": "address",
          "name": "to",
          "type": "address"
        },
        {
          "internalType": "uint256",
          "name": "amount",
          "type": "uint256"
        }
      ],
      "name": "transferFrom",
      "outputs": [
        {
          "internalType": "bool",
          "name": "",
          "type": "bool"
        }
      ],
      "stateMutability": "nonpayable",
      "type": "function"
    }
  ],
  "bytecode": "0x6101606040527f6e71edae12b1b97f4d1f60370fef10105fa2faae0126114a169c64845d6126c96101405269d3c21bcecceda10000006009553480156200004557600080fd5b506040518060400160405280601081526020016f213637b1b5a9ba3932b2ba2a37b5b2b760811b81525080604051806040016040528060018152602001603160f81b8152506040518060400160405280601081526020016f213637b1b5a9ba3932b2ba2a37b5b2b760811b815250604051806040016040528060038152602001621094d560ea1b8152508160039080519060200190620000e7929190620007cd565b508051620000fd906004906020840190620007cd565b5050825160208085019190912083518483012060e08290526101008190524660a0818152604080517f8b73c3c69bb8fe3d512ecc4cf759cc79239f7b179b0ffacaa9a75d522b39400f81880181905281830187905260608201869052608082019490945230818401528151808203909301835260c0019052805194019390932091935091906080523060601b60c052610120525050600954620001a693503392509050620001ac565b62000907565b620001c38282620001c760201b620009c61760201c565b5050565b620001de82826200027e60201b62000a561760201c565b6001600160e01b03620001f26200036d8216565b11156200025f5760405162461bcd60e51b815260206004820152603060248201527f4552433230566f7465733a20746f74616c20737570706c79207269736b73206f60448201526f766572666c6f77696e6720766f74657360801b60648201526084015b60405180910390fd5b62000278600862000b2f6200037360201b178362000388565b50505050565b6001600160a01b038216620002d65760405162461bcd60e51b815260206004820152601f60248201527f45524332303a206d696e7420746f20746865207a65726f206164647265737300604482015260640162000256565b8060026000828254620002ea919062000869565b90915550506001600160a01b038216600090815260208190526040812080548392906200031990849062000869565b90915550506040518181526001600160a01b038316906000907fddf252ad1be2c89b69c2b068fc378daa952ba7f163c4a11628f55a4df523b3ef9060200160405180910390a3620001c3600083836200053f565b60025490565b600062000381828462000869565b9392505050565b825460009081908015620003da5785620003a460018362000884565b81548110620003b757620003b7620008f1565b60009182526020909120015464010000000090046001600160e01b0316620003dd565b60005b6001600160e01b03169250620003f483858760201c565b915060008111801562000438575043866200041160018462000884565b81548110620004245762000424620008f1565b60009182526020909120015463ffffffff16145b15620004ac5762000454826200055760201b62000b3b1760201c565b866200046260018462000884565b81548110620004755762000475620008f1565b9060005260206000200160000160046101000a8154816001600160e01b0302191690836001600160e01b0316021790555062000531565b856040518060400160405280620004ce43620005c660201b62000ba81760201c565b63ffffffff168152602001620004ef856200055760201b62000b3b1760201c565b6001600160e01b0390811690915282546001810184556000938452602093849020835194909301519091166401000000000263ffffffff909316929092179101555b50935093915050565b505050565b6200053a8383836200062d60201b62000c0d1760201c565b60006001600160e01b03821115620005c25760405162461bcd60e51b815260206004820152602760248201527f53616665436173743a2076616c756520646f65736e27742066697420696e20326044820152663234206269747360c81b606482015260840162000256565b5090565b600063ffffffff821115620005c25760405162461bcd60e51b815260206004820152602660248201527f53616665436173743a2076616c756520646f65736e27742066697420696e203360448201526532206269747360d01b606482015260840162000256565b620006458383836200053a60201b62000c281760201c565b6200053a620006548462000666565b6200065f8462000666565b8362000684565b6001600160a01b039081166000908152600660205260409020541690565b816001600160a01b0316836001600160a01b031614158015620006a75750600081115b156200053a576001600160a01b0383161562000734576001600160a01b038316600090815260076020908152604082208291620006f19190620007bf901b62000c2d178562000388565b91509150846001600160a01b03166000805160206200250e833981519152838360405162000729929190918252602082015260400190565b60405180910390a250505b6001600160a01b038216156200053a576001600160a01b03821660009081526007602090815260408220829162000778919062000373901b62000b2f178562000388565b91509150836001600160a01b03166000805160206200250e8339815191528383604051620007b0929190918252602082015260400190565b60405180910390a25050505050565b600062000381828462000884565b828054620007db906200089e565b90600052602060002090601f016020900481019282620007ff57600085556200084a565b82601f106200081a57805160ff19168380011785556200084a565b828001600101855582156200084a579182015b828111156200084a5782518255916020019190600101906200082d565b50620005c29291505b80821115620005c2576000815560010162000853565b600082198211156200087f576200087f620008db565b500190565b600082821015620008995762000899620008db565b500390565b600181811c90821680620008b357607f821691505b60208210811415620008d557634e487b7160e01b600052602260045260246000fd5b50919050565b634e487b7160e01b600052601160045260246000fd5b634e487b7160e01b600052603260045260246000fd5b60805160a05160c05160601c60e051610100516101205161014051611ba96200096560003960006108080152600061101d0152600061106c0152600061104701526000610fa001526000610fca01526000610ff40152611ba96000f3fe608060405234801561001057600080fd5b506004361061011d5760003560e01c806306fdde0314610122578063095ea7b31461014057806318160ddd1461016357806323b872dd14610175578063313ce567146101885780633644e51514610197578063395093511461019f5780633a46b1a8146101b2578063587cde1e146101c55780635c19a95c146101f05780635d641847146102055780636fcfff451461020e57806370a08231146102365780637ecebe00146102495780638e539e8c1461025c57806395d89b411461026f5780639ab24eb014610277578063a457c2d71461028a578063a9059cbb1461029d578063c3cda520146102b0578063d505accf146102c3578063dd62ed3e146102d6578063f1127ed8146102e9575b600080fd5b61012a610326565b60405161013791906119df565b60405180910390f35b61015361014e366004611904565b6103b8565b6040519015158152602001610137565b6002545b604051908152602001610137565b61015361018336600461185e565b6103d0565b60405160128152602001610137565b6101676103f4565b6101536101ad366004611904565b610403565b6101676101c0366004611904565b610442565b6101d86101d3366004611810565b610495565b6040516001600160a01b039091168152602001610137565b6102036101fe366004611810565b6104b3565b005b61016760095481565b61022161021c366004611810565b6104c0565b60405163ffffffff9091168152602001610137565b610167610244366004611810565b6104e8565b610167610257366004611810565b610503565b61016761026a3660046119c6565b610521565b61012a61054d565b610167610285366004611810565b61055c565b610153610298366004611904565b6105e2565b6101536102ab366004611904565b610674565b6102036102be36600461192e565b610682565b6102036102d136600461189a565b6107b4565b6101676102e436600461182b565b610918565b6102fc6102f7366004611986565b610943565b60408051825163ffffffff1681526020928301516001600160e01b03169281019290925201610137565b60606003805461033590611abc565b80601f016020809104026020016040519081016040528092919081815260200182805461036190611abc565b80156103ae5780601f10610383576101008083540402835291602001916103ae565b820191906000526020600020905b81548152906001019060200180831161039157829003601f168201915b5050505050905090565b6000336103c6818585610c39565b5060019392505050565b6000336103de858285610d5d565b6103e9858585610dd1565b506001949350505050565b60006103fe610f93565b905090565b3360008181526001602090815260408083206001600160a01b03871684529091528120549091906103c6908290869061043d908790611a6b565b610c39565b600043821061046c5760405162461bcd60e51b815260040161046390611a34565b60405180910390fd5b6001600160a01b038316600090815260076020526040902061048e90836110ba565b9392505050565b6001600160a01b039081166000908152600660205260409020541690565b6104bd3382611176565b50565b6001600160a01b0381166000908152600760205260408120546104e290610ba8565b92915050565b6001600160a01b031660009081526020819052604090205490565b6001600160a01b0381166000908152600560205260408120546104e2565b60004382106105425760405162461bcd60e51b815260040161046390611a34565b6104e26008836110ba565b60606004805461033590611abc565b6001600160a01b03811660009081526007602052604081205480156105cf576001600160a01b038316600090815260076020526040902061059e600183611aa5565b815481106105ae576105ae611b1d565b600091825260209091200154600160201b90046001600160e01b03166105d2565b60005b6001600160e01b03169392505050565b3360008181526001602090815260408083206001600160a01b0387168452909152812054909190838110156106675760405162461bcd60e51b815260206004820152602560248201527f45524332303a2064656372656173656420616c6c6f77616e63652062656c6f77604482015264207a65726f60d81b6064820152608401610463565b6103e98286868403610c39565b6000336103c6818585610dd1565b834211156106d25760405162461bcd60e51b815260206004820152601d60248201527f4552433230566f7465733a207369676e617475726520657870697265640000006044820152606401610463565b604080517fe48329057bfd03d55e49b547132e39cffd9c1820ad7b9d4c5307691425d15adf60208201526001600160a01b03881691810191909152606081018690526080810185905260009061074c906107449060a001604051602081830303815290604052805190602001206111f6565b858585611244565b90506107578161126c565b86146107a15760405162461bcd60e51b81526020600482015260196024820152784552433230566f7465733a20696e76616c6964206e6f6e636560381b6044820152606401610463565b6107ab8188611176565b50505050505050565b834211156108045760405162461bcd60e51b815260206004820152601d60248201527f45524332305065726d69743a206578706972656420646561646c696e650000006044820152606401610463565b60007f00000000000000000000000000000000000000000000000000000000000000008888886108338c61126c565b6040805160208101969096526001600160a01b0394851690860152929091166060840152608083015260a082015260c0810186905260e001604051602081830303815290604052805190602001209050600061088e826111f6565b9050600061089e82878787611244565b9050896001600160a01b0316816001600160a01b0316146109015760405162461bcd60e51b815260206004820152601e60248201527f45524332305065726d69743a20696e76616c6964207369676e617475726500006044820152606401610463565b61090c8a8a8a610c39565b50505050505050505050565b6001600160a01b03918216600090815260016020908152604080832093909416825291909152205490565b60408051808201909152600080825260208201526001600160a01b0383166000908152600760205260409020805463ffffffff841690811061098757610987611b1d565b60009182526020918290206040805180820190915291015463ffffffff81168252600160201b90046001600160e01b0316918101919091529392505050565b6109d08282610a56565b6002546001600160e01b031015610a425760405162461bcd60e51b815260206004820152603060248201527f4552433230566f7465733a20746f74616c20737570706c79207269736b73206f60448201526f766572666c6f77696e6720766f74657360801b6064820152608401610463565b610a506008610b2f83611294565b50505050565b6001600160a01b038216610aac5760405162461bcd60e51b815260206004820152601f60248201527f45524332303a206d696e7420746f20746865207a65726f2061646472657373006044820152606401610463565b8060026000828254610abe9190611a6b565b90915550506001600160a01b03821660009081526020819052604081208054839290610aeb908490611a6b565b90915550506040518181526001600160a01b03831690600090600080516020611b348339815191529060200160405180910390a3610b2b6000838361140b565b5050565b600061048e8284611a6b565b60006001600160e01b03821115610ba45760405162461bcd60e51b815260206004820152602760248201527f53616665436173743a2076616c756520646f65736e27742066697420696e20326044820152663234206269747360c81b6064820152608401610463565b5090565b600063ffffffff821115610ba45760405162461bcd60e51b815260206004820152602660248201527f53616665436173743a2076616c756520646f65736e27742066697420696e203360448201526532206269747360d01b6064820152608401610463565b610c28610c1984610495565b610c2284610495565b83611416565b505050565b600061048e8284611aa5565b6001600160a01b038316610c9b5760405162461bcd60e51b8152602060048201526024808201527f45524332303a20617070726f76652066726f6d20746865207a65726f206164646044820152637265737360e01b6064820152608401610463565b6001600160a01b038216610cfc5760405162461bcd60e51b815260206004820152602260248201527f45524332303a20617070726f766520746f20746865207a65726f206164647265604482015261737360f01b6064820152608401610463565b6001600160a01b0383811660008181526001602090815260408083209487168084529482529182902085905590518481527f8c5be1e5ebec7d5bd14f71427d1e84f3dd0314c0f7b2291e5b200ac8c7c3b925910160405180910390a3505050565b6000610d698484610918565b90506000198114610a505781811015610dc45760405162461bcd60e51b815260206004820152601d60248201527f45524332303a20696e73756666696369656e7420616c6c6f77616e63650000006044820152606401610463565b610a508484848403610c39565b6001600160a01b038316610e355760405162461bcd60e51b815260206004820152602560248201527f45524332303a207472616e736665722066726f6d20746865207a65726f206164604482015264647265737360d81b6064820152608401610463565b6001600160a01b038216610e975760405162461bcd60e51b815260206004820152602360248201527f45524332303a207472616e7366657220746f20746865207a65726f206164647260448201526265737360e81b6064820152608401610463565b6001600160a01b03831660009081526020819052604090205481811015610f0f5760405162461bcd60e51b815260206004820152602660248201527f45524332303a207472616e7366657220616d6f756e7420657863656564732062604482015265616c616e636560d01b6064820152608401610463565b6001600160a01b03808516600090815260208190526040808220858503905591851681529081208054849290610f46908490611a6b565b92505081905550826001600160a01b0316846001600160a01b0316600080516020611b3483398151915284604051610f8091815260200190565b60405180910390a3610a5084848461140b565b6000306001600160a01b037f000000000000000000000000000000000000000000000000000000000000000016148015610fec57507f000000000000000000000000000000000000000000000000000000000000000046145b1561101657507f000000000000000000000000000000000000000000000000000000000000000090565b50604080517f00000000000000000000000000000000000000000000000000000000000000006020808301919091527f0000000000000000000000000000000000000000000000000000000000000000828401527f000000000000000000000000000000000000000000000000000000000000000060608301524660808301523060a0808401919091528351808403909101815260c0909201909252805191012090565b8154600090815b8181101561111e5760006110d5828461152f565b9050848682815481106110ea576110ea611b1d565b60009182526020909120015463ffffffff16111561110a57809250611118565b611115816001611a6b565b91505b506110c1565b81156111615784611130600184611aa5565b8154811061114057611140611b1d565b600091825260209091200154600160201b90046001600160e01b0316611164565b60005b6001600160e01b031695945050505050565b600061118183610495565b9050600061118e846104e8565b6001600160a01b0385811660008181526006602052604080822080546001600160a01b031916898616908117909155905194955093928616927f3134e8a2e6d97e929a7e54011ea5485d7d196dd5f0ba4d4ef95803e8e3fc257f9190a4610a50828483611416565b60006104e2611203610f93565b8360405161190160f01b6020820152602281018390526042810182905260009060620160405160208183030381529060405280519060200120905092915050565b60008060006112558787878761154a565b915091506112628161162d565b5095945050505050565b6001600160a01b03811660009081526005602052604090208054600181018255905b50919050565b8254600090819080156112de57856112ad600183611aa5565b815481106112bd576112bd611b1d565b600091825260209091200154600160201b90046001600160e01b03166112e1565b60005b6001600160e01b031692506112fa83858763ffffffff16565b915060008111801561133857504386611314600184611aa5565b8154811061132457611324611b1d565b60009182526020909120015463ffffffff16145b156113985761134682610b3b565b86611352600184611aa5565b8154811061136257611362611b1d565b9060005260206000200160000160046101000a8154816001600160e01b0302191690836001600160e01b03160217905550611402565b8560405180604001604052806113ad43610ba8565b63ffffffff1681526020016113c185610b3b565b6001600160e01b039081169091528254600181018455600093845260209384902083519490930151909116600160201b0263ffffffff909316929092179101555b50935093915050565b610c28838383610c0d565b816001600160a01b0316836001600160a01b0316141580156114385750600081115b15610c28576001600160a01b038316156114b4576001600160a01b0383166000908152600760205260408120819061147390610c2d85611294565b91509150846001600160a01b0316600080516020611b5483398151915283836040516114a9929190918252602082015260400190565b60405180910390a250505b6001600160a01b03821615610c28576001600160a01b038216600090815260076020526040812081906114ea90610b2f85611294565b91509150836001600160a01b0316600080516020611b548339815191528383604051611520929190918252602082015260400190565b60405180910390a25050505050565b600061153e6002848418611a83565b61048e90848416611a6b565b6000806fa2a8918ca85bafe22016d0b997e4df60600160ff1b038311156115775750600090506003611624565b8460ff16601b1415801561158f57508460ff16601c14155b156115a05750600090506004611624565b6040805160008082526020820180845289905260ff881692820192909252606081018690526080810185905260019060a0016020604051602081039080840390855afa1580156115f4573d6000803e3d6000fd5b5050604051601f1901519150506001600160a01b03811661161d57600060019250925050611624565b9150600090505b94509492505050565b600081600481111561164157611641611b07565b141561164a5750565b600181600481111561165e5761165e611b07565b14156116a75760405162461bcd60e51b815260206004820152601860248201527745434453413a20696e76616c6964207369676e617475726560401b6044820152606401610463565b60028160048111156116bb576116bb611b07565b14156117095760405162461bcd60e51b815260206004820152601f60248201527f45434453413a20696e76616c6964207369676e6174757265206c656e677468006044820152606401610463565b600381600481111561171d5761171d611b07565b14156117765760405162461bcd60e51b815260206004820152602260248201527f45434453413a20696e76616c6964207369676e6174757265202773272076616c604482015261756560f01b6064820152608401610463565b600481600481111561178a5761178a611b07565b14156104bd5760405162461bcd60e51b815260206004820152602260248201527f45434453413a20696e76616c6964207369676e6174757265202776272076616c604482015261756560f01b6064820152608401610463565b80356001600160a01b03811681146117fa57600080fd5b919050565b803560ff811681146117fa57600080fd5b60006020828403121561182257600080fd5b61048e826117e3565b6000806040838503121561183e57600080fd5b611847836117e3565b9150611855602084016117e3565b90509250929050565b60008060006060848603121561187357600080fd5b61187c846117e3565b925061188a602085016117e3565b9150604084013590509250925092565b600080600080600080600060e0888a0312156118b557600080fd5b6118be886117e3565b96506118cc602089016117e3565b955060408801359450606088013593506118e8608089016117ff565b925060a0880135915060c0880135905092959891949750929550565b6000806040838503121561191757600080fd5b611920836117e3565b946020939093013593505050565b60008060008060008060c0878903121561194757600080fd5b611950876117e3565b9550602087013594506040870135935061196c606088016117ff565b92506080870135915060a087013590509295509295509295565b6000806040838503121561199957600080fd5b6119a2836117e3565b9150602083013563ffffffff811681146119bb57600080fd5b809150509250929050565b6000602082840312156119d857600080fd5b5035919050565b600060208083528351808285015260005b81811015611a0c578581018301518582016040015282016119f0565b81811115611a1e576000604083870101525b50601f01601f1916929092016040019392505050565b6020808252601f908201527f4552433230566f7465733a20626c6f636b206e6f7420796574206d696e656400604082015260600190565b60008219821115611a7e57611a7e611af1565b500190565b600082611aa057634e487b7160e01b600052601260045260246000fd5b500490565b600082821015611ab757611ab7611af1565b500390565b600181811c90821680611ad057607f821691505b6020821081141561128e57634e487b7160e01b600052602260045260246000fd5b634e487b7160e01b600052601160045260246000fd5b634e487b7160e01b600052602160045260246000fd5b634e487b7160e01b600052603260045260246000fdfeddf252ad1be2c89b69c2b068fc378daa952ba7f163c4a11628f55a4df523b3efdec2bacdd2f05b59de34da9b523dff8be42e5e38e818c82fdb0bae774387a724a2646970667358221220f94a849c6dd7a1e295d7647cbffc8ffac73765ae2b7f1083c71f6b20b7a7c16e64736f6c63430008070033dec2bacdd2f05b59de34da9b523dff8be42e5e38e818c82fdb0bae774387a724",
  "immutableReferences": {
    "6031": [
      {
        "length": 32,
        "start": 2056
      }
    ],
    "7429": [
      {
        "length": 32,
        "start": 4084
      }
    ],
    "7431": [
      {
        "length": 32,
        "start": 4042
      }
    ],
    "7433": [
      {
        "length": 32,
        "start": 4000
      }
    ],
    "7435": [
      {
        "length": 32,
        "start": 4167
      }
    ],
    "7437": [
      {
        "length": 32,
        "start": 4204
      }
    ],
    "7439": [
      {
        "length": 32,
        "start": 4125
      }
    ]
  },
  "source": "// SPDX-License-Identifier: MIT\r\npragma solidity 0.8.7;\r\npragma experimental ABIEncoderV2;\r\n\r\nimport \"@openzeppelin/contracts/token/ERC20/extensions/ERC20Votes.sol\";\r\n\r\ncontract BlockStreetToken is ERC20Votes {\r\n    uint256 public s_maxSupply = 1000000 * 10 ** 18;\r\n\r\n    constructor()\r\n        ERC20(\"BlockStreetToken\", \"BST\")\r\n        ERC20Permit(\"BlockStreetToken\")\r\n    {\r\n        _mint(msg.sender, s_maxSupply);\r\n    }\r\n\r\n    // The functions below are overrides required by Solidity.\r\n\r\n    function _afterTokenTransfer(\r\n        address from,\r\n        address to,\r\n        uint256 amount\r\n    ) internal override(ERC20Votes) {\r\n        super._afterTokenTransfer(from, to, amount);\r\n    }\r\n\r\n    function _mint(address to, uint256 amount) internal override(ERC20Votes) {\r\n        super._mint(to, amount);\r\n    }\r\n\r\n    function _burn(address account, uint256 amount)\r\n        internal\r\n        override(ERC20Votes)\r\n    {\r\n        super._burn(account, amount);\r\n    }\r\n}",
  "sourcePath": "C:\\Users\\USER\\Desktop\\Projects\\Blockstreet dao\\contracts\\BlockStreetToken.sol",
  "compiler": {
    "name": "solc",
    "version": "0.8.7+commit.e28d00a7.Emscripten.clang"
  },
  "schemaVersion": "3.4.6",
  "updatedAt": "2022-03-30T22:16:43.374Z",
  "networkType": "ethereum",
  "devdoc": {
    "kind": "dev",
    "methods": {
      "DOMAIN_SEPARATOR()": {
        "details": "See {IERC20Permit-DOMAIN_SEPARATOR}."
      },
      "allowance(address,address)": {
        "details": "See {IERC20-allowance}."
      },
      "approve(address,uint256)": {
        "details": "See {IERC20-approve}. NOTE: If `amount` is the maximum `uint256`, the allowance is not updated on `transferFrom`. This is semantically equivalent to an infinite approval. Requirements: - `spender` cannot be the zero address."
      },
      "balanceOf(address)": {
        "details": "See {IERC20-balanceOf}."
      },
      "checkpoints(address,uint32)": {
        "details": "Get the `pos`-th checkpoint for `account`."
      },
      "decimals()": {
        "details": "Returns the number of decimals used to get its user representation. For example, if `decimals` equals `2`, a balance of `505` tokens should be displayed to a user as `5.05` (`505 / 10 ** 2`). Tokens usually opt for a value of 18, imitating the relationship between Ether and Wei. This is the value {ERC20} uses, unless this function is overridden; NOTE: This information is only used for _display_ purposes: it in no way affects any of the arithmetic of the contract, including {IERC20-balanceOf} and {IERC20-transfer}."
      },
      "decreaseAllowance(address,uint256)": {
        "details": "Atomically decreases the allowance granted to `spender` by the caller. This is an alternative to {approve} that can be used as a mitigation for problems described in {IERC20-approve}. Emits an {Approval} event indicating the updated allowance. Requirements: - `spender` cannot be the zero address. - `spender` must have allowance for the caller of at least `subtractedValue`."
      },
      "delegate(address)": {
        "details": "Delegate votes from the sender to `delegatee`."
      },
      "delegateBySig(address,uint256,uint256,uint8,bytes32,bytes32)": {
        "details": "Delegates votes from signer to `delegatee`"
      },
      "delegates(address)": {
        "details": "Get the address `account` is currently delegating to."
      },
      "getPastTotalSupply(uint256)": {
        "details": "Retrieve the `totalSupply` at the end of `blockNumber`. Note, this value is the sum of all balances. It is but NOT the sum of all the delegated votes! Requirements: - `blockNumber` must have been already mined"
      },
      "getPastVotes(address,uint256)": {
        "details": "Retrieve the number of votes for `account` at the end of `blockNumber`. Requirements: - `blockNumber` must have been already mined"
      },
      "getVotes(address)": {
        "details": "Gets the current votes balance for `account`"
      },
      "increaseAllowance(address,uint256)": {
        "details": "Atomically increases the allowance granted to `spender` by the caller. This is an alternative to {approve} that can be used as a mitigation for problems described in {IERC20-approve}. Emits an {Approval} event indicating the updated allowance. Requirements: - `spender` cannot be the zero address."
      },
      "name()": {
        "details": "Returns the name of the token."
      },
      "nonces(address)": {
        "details": "See {IERC20Permit-nonces}."
      },
      "numCheckpoints(address)": {
        "details": "Get number of checkpoints for `account`."
      },
      "permit(address,address,uint256,uint256,uint8,bytes32,bytes32)": {
        "details": "See {IERC20Permit-permit}."
      },
      "symbol()": {
        "details": "Returns the symbol of the token, usually a shorter version of the name."
      },
      "totalSupply()": {
        "details": "See {IERC20-totalSupply}."
      },
      "transfer(address,uint256)": {
        "details": "See {IERC20-transfer}. Requirements: - `to` cannot be the zero address. - the caller must have a balance of at least `amount`."
      },
      "transferFrom(address,address,uint256)": {
        "details": "See {IERC20-transferFrom}. Emits an {Approval} event indicating the updated allowance. This is not required by the EIP. See the note at the beginning of {ERC20}. NOTE: Does not update the allowance if the current allowance is the maximum `uint256`. Requirements: - `from` and `to` cannot be the zero address. - `from` must have a balance of at least `amount`. - the caller must have allowance for ``from``'s tokens of at least `amount`."
      }
    },
    "version": 1
  },
  "userdoc": {
    "kind": "user",
    "methods": {},
    "version": 1
  }
}