{
  "contractName": "BlockStreetCert",
  "abi": [
    {
      "inputs": [
        {
          "internalType": "string",
          "name": "_courseTitle",
          "type": "string"
        },
        {
          "internalType": "address",
          "name": "_schoolAddress",
          "type": "address"
        },
        {
          "internalType": "address",
          "name": "_tutor",
          "type": "address"
        }
      ],
      "stateMutability": "nonpayable",
      "type": "constructor"
    },
    {
      "anonymous": false,
      "inputs": [
        {
          "indexed": true,
          "internalType": "address",
          "name": "account",
          "type": "address"
        },
        {
          "indexed": true,
          "internalType": "address",
          "name": "operator",
          "type": "address"
        },
        {
          "indexed": false,
          "internalType": "bool",
          "name": "approved",
          "type": "bool"
        }
      ],
      "name": "ApprovalForAll",
      "type": "event"
    },
    {
      "anonymous": false,
      "inputs": [
        {
          "indexed": true,
          "internalType": "address",
          "name": "previousOwner",
          "type": "address"
        },
        {
          "indexed": true,
          "internalType": "address",
          "name": "newOwner",
          "type": "address"
        }
      ],
      "name": "OwnershipTransferred",
      "type": "event"
    },
    {
      "anonymous": false,
      "inputs": [
        {
          "indexed": true,
          "internalType": "address",
          "name": "operator",
          "type": "address"
        },
        {
          "indexed": true,
          "internalType": "address",
          "name": "from",
          "type": "address"
        },
        {
          "indexed": true,
          "internalType": "address",
          "name": "to",
          "type": "address"
        },
        {
          "indexed": false,
          "internalType": "uint256[]",
          "name": "ids",
          "type": "uint256[]"
        },
        {
          "indexed": false,
          "internalType": "uint256[]",
          "name": "values",
          "type": "uint256[]"
        }
      ],
      "name": "TransferBatch",
      "type": "event"
    },
    {
      "anonymous": false,
      "inputs": [
        {
          "indexed": true,
          "internalType": "address",
          "name": "operator",
          "type": "address"
        },
        {
          "indexed": true,
          "internalType": "address",
          "name": "from",
          "type": "address"
        },
        {
          "indexed": true,
          "internalType": "address",
          "name": "to",
          "type": "address"
        },
        {
          "indexed": false,
          "internalType": "uint256",
          "name": "id",
          "type": "uint256"
        },
        {
          "indexed": false,
          "internalType": "uint256",
          "name": "value",
          "type": "uint256"
        }
      ],
      "name": "TransferSingle",
      "type": "event"
    },
    {
      "anonymous": false,
      "inputs": [
        {
          "indexed": false,
          "internalType": "string",
          "name": "value",
          "type": "string"
        },
        {
          "indexed": true,
          "internalType": "uint256",
          "name": "id",
          "type": "uint256"
        }
      ],
      "name": "URI",
      "type": "event"
    },
    {
      "inputs": [
        {
          "internalType": "address",
          "name": "account",
          "type": "address"
        },
        {
          "internalType": "uint256",
          "name": "id",
          "type": "uint256"
        }
      ],
      "name": "balanceOf",
      "outputs": [
        {
          "internalType": "uint256",
          "name": "",
          "type": "uint256"
        }
      ],
      "stateMutability": "view",
      "type": "function"
    },
    {
      "inputs": [
        {
          "internalType": "address[]",
          "name": "accounts",
          "type": "address[]"
        },
        {
          "internalType": "uint256[]",
          "name": "ids",
          "type": "uint256[]"
        }
      ],
      "name": "balanceOfBatch",
      "outputs": [
        {
          "internalType": "uint256[]",
          "name": "",
          "type": "uint256[]"
        }
      ],
      "stateMutability": "view",
      "type": "function"
    },
    {
      "inputs": [
        {
          "internalType": "address",
          "name": "account",
          "type": "address"
        },
        {
          "internalType": "address",
          "name": "operator",
          "type": "address"
        }
      ],
      "name": "isApprovedForAll",
      "outputs": [
        {
          "internalType": "bool",
          "name": "",
          "type": "bool"
        }
      ],
      "stateMutability": "view",
      "type": "function"
    },
    {
      "inputs": [],
      "name": "owner",
      "outputs": [
        {
          "internalType": "address",
          "name": "",
          "type": "address"
        }
      ],
      "stateMutability": "view",
      "type": "function"
    },
    {
      "inputs": [],
      "name": "renounceOwnership",
      "outputs": [],
      "stateMutability": "nonpayable",
      "type": "function"
    },
    {
      "inputs": [
        {
          "internalType": "address",
          "name": "from",
          "type": "address"
        },
        {
          "internalType": "address",
          "name": "to",
          "type": "address"
        },
        {
          "internalType": "uint256[]",
          "name": "ids",
          "type": "uint256[]"
        },
        {
          "internalType": "uint256[]",
          "name": "amounts",
          "type": "uint256[]"
        },
        {
          "internalType": "bytes",
          "name": "data",
          "type": "bytes"
        }
      ],
      "name": "safeBatchTransferFrom",
      "outputs": [],
      "stateMutability": "nonpayable",
      "type": "function"
    },
    {
      "inputs": [
        {
          "internalType": "address",
          "name": "from",
          "type": "address"
        },
        {
          "internalType": "address",
          "name": "to",
          "type": "address"
        },
        {
          "internalType": "uint256",
          "name": "id",
          "type": "uint256"
        },
        {
          "internalType": "uint256",
          "name": "amount",
          "type": "uint256"
        },
        {
          "internalType": "bytes",
          "name": "data",
          "type": "bytes"
        }
      ],
      "name": "safeTransferFrom",
      "outputs": [],
      "stateMutability": "nonpayable",
      "type": "function"
    },
    {
      "inputs": [
        {
          "internalType": "address",
          "name": "operator",
          "type": "address"
        },
        {
          "internalType": "bool",
          "name": "approved",
          "type": "bool"
        }
      ],
      "name": "setApprovalForAll",
      "outputs": [],
      "stateMutability": "nonpayable",
      "type": "function"
    },
    {
      "inputs": [
        {
          "internalType": "bytes4",
          "name": "interfaceId",
          "type": "bytes4"
        }
      ],
      "name": "supportsInterface",
      "outputs": [
        {
          "internalType": "bool",
          "name": "",
          "type": "bool"
        }
      ],
      "stateMutability": "view",
      "type": "function"
    },
    {
      "inputs": [
        {
          "internalType": "address",
          "name": "newOwner",
          "type": "address"
        }
      ],
      "name": "transferOwnership",
      "outputs": [],
      "stateMutability": "nonpayable",
      "type": "function"
    },
    {
      "inputs": [
        {
          "internalType": "uint256",
          "name": "",
          "type": "uint256"
        }
      ],
      "name": "uri",
      "outputs": [
        {
          "internalType": "string",
          "name": "",
          "type": "string"
        }
      ],
      "stateMutability": "view",
      "type": "function"
    },
    {
      "inputs": [
        {
          "internalType": "address",
          "name": "_holder",
          "type": "address"
        },
        {
          "internalType": "uint256",
          "name": "_id",
          "type": "uint256"
        },
        {
          "internalType": "uint256",
          "name": "_amount",
          "type": "uint256"
        },
        {
          "internalType": "bytes",
          "name": "data",
          "type": "bytes"
        }
      ],
      "name": "mint",
      "outputs": [],
      "stateMutability": "nonpayable",
      "type": "function"
    },
    {
      "inputs": [
        {
          "internalType": "address",
          "name": "_holder",
          "type": "address"
        },
        {
          "internalType": "uint256",
          "name": "_id",
          "type": "uint256"
        }
      ],
      "name": "getBalanceOf",
      "outputs": [],
      "stateMutability": "view",
      "type": "function"
    },
    {
      "inputs": [
        {
          "internalType": "address",
          "name": "_holder",
          "type": "address"
        }
      ],
      "name": "AddHolders",
      "outputs": [],
      "stateMutability": "nonpayable",
      "type": "function"
    },
    {
      "inputs": [],
      "name": "incraseCertHolders",
      "outputs": [],
      "stateMutability": "nonpayable",
      "type": "function"
    }
  ],
  "bytecode": "0x60806040523480156200001157600080fd5b5060405162001bda38038062001bda8339810160408190526200003491620001d1565b6040805160208101909152600081526200004e81620000a3565b506200005a33620000bc565b82516200006f9060069060208601906200010e565b50600780546001600160a01b039384166001600160a01b031991821617909155600880549290931691161790555062000327565b8051620000b89060029060208401906200010e565b5050565b600380546001600160a01b038381166001600160a01b0319831681179093556040519116919082907f8be0079c531659141344cd1fd0a4f28419497f9722a3daafe3b4186f6b6457e090600090a35050565b8280546200011c90620002d4565b90600052602060002090601f0160209004810192826200014057600085556200018b565b82601f106200015b57805160ff19168380011785556200018b565b828001600101855582156200018b579182015b828111156200018b5782518255916020019190600101906200016e565b50620001999291506200019d565b5090565b5b808211156200019957600081556001016200019e565b80516001600160a01b0381168114620001cc57600080fd5b919050565b600080600060608486031215620001e757600080fd5b83516001600160401b0380821115620001ff57600080fd5b818601915086601f8301126200021457600080fd5b81518181111562000229576200022962000311565b604051601f8201601f19908116603f0116810190838211818310171562000254576200025462000311565b816040528281526020935089848487010111156200027157600080fd5b600091505b8282101562000295578482018401518183018501529083019062000276565b82821115620002a75760008484830101525b9650620002b9915050868201620001b4565b93505050620002cb60408501620001b4565b90509250925092565b600181811c90821680620002e957607f821691505b602082108114156200030b57634e487b7160e01b600052602260045260246000fd5b50919050565b634e487b7160e01b600052604160045260246000fd5b6118a380620003376000396000f3fe608060405234801561001057600080fd5b50600436106100c45760003560e01c8062fdd58e146100c957806301ffc9a7146100ef5780630e89341c146101125780632eb2c2d6146101325780634e1273f414610147578063715018a614610167578063731133e91461016f5780638da5cb5b1461018257806394d45b59146101a2578063a22cb465146101b5578063af8fbd05146101c8578063e985e9c5146101db578063edf2199514610217578063f242432a1461021f578063f2fde38b14610232575b600080fd5b6100dc6100d736600461125b565b610245565b6040519081526020015b60405180910390f35b6101026100fd3660046113b5565b6102dc565b60405190151581526020016100e6565b6101256101203660046113ef565b61032e565b6040516100e69190611574565b610145610140366004611112565b6103c2565b005b61015a6101553660046112e5565b610459565b6040516100e69190611533565b610145610582565b61014561017d366004611285565b6105bd565b61018a61060d565b6040516001600160a01b0390911681526020016100e6565b6101456101b036600461125b565b61061c565b6101456101c336600461121f565b61062b565b6101456101d63660046110bd565b61063a565b6101026101e93660046110df565b6001600160a01b03918216600090815260016020908152604080832093909416825291909152205460ff1690565b61014561069a565b61014561022d3660046111bb565b6106e0565b6101456102403660046110bd565b610767565b60006001600160a01b0383166102b65760405162461bcd60e51b815260206004820152602b60248201527f455243313135353a2062616c616e636520717565727920666f7220746865207a60448201526a65726f206164647265737360a81b60648201526084015b60405180910390fd5b506000908152602081815260408083206001600160a01b03949094168352929052205490565b60006001600160e01b03198216636cdb3d1360e11b148061030d57506001600160e01b031982166303a24d0760e21b145b8061032857506301ffc9a760e01b6001600160e01b03198316145b92915050565b60606002805461033d906116ce565b80601f0160208091040260200160405190810160405280929190818152602001828054610369906116ce565b80156103b65780601f1061038b576101008083540402835291602001916103b6565b820191906000526020600020905b81548152906001019060200180831161039957829003601f168201915b50505050509050919050565b6001600160a01b0385163314806103de57506103de85336101e9565b6104455760405162461bcd60e51b815260206004820152603260248201527f455243313135353a207472616e736665722063616c6c6572206973206e6f74206044820152711bdddb995c881b9bdc88185c1c1c9bdd995960721b60648201526084016102ad565b6104528585858585610807565b5050505050565b606081518351146104be5760405162461bcd60e51b815260206004820152602960248201527f455243313135353a206163636f756e747320616e6420696473206c656e677468604482015268040dad2e6dac2e8c6d60bb1b60648201526084016102ad565b600083516001600160401b038111156104d9576104d961177c565b604051908082528060200260200182016040528015610502578160200160208202803683370190505b50905060005b845181101561057a5761054d85828151811061052657610526611766565b602002602001015185838151811061054057610540611766565b6020026020010151610245565b82828151811061055f5761055f611766565b602090810291909101015261057381611735565b9050610508565b509392505050565b3361058b61060d565b6001600160a01b0316146105b15760405162461bcd60e51b81526004016102ad9061165e565b6105bb60006109e4565b565b336105c661060d565b6001600160a01b0316146105ec5760405162461bcd60e51b81526004016102ad9061165e565b61060784848460405180602001604052806000815250610a36565b50505050565b6003546001600160a01b031690565b6106268282610245565b505050565b610636338383610b2e565b5050565b3361064361060d565b6001600160a01b0316146106695760405162461bcd60e51b81526004016102ad9061165e565b600554600090815260046020526040902080546001600160a01b0319166001600160a01b0392909216919091179055565b336106a361060d565b6001600160a01b0316146106c95760405162461bcd60e51b81526004016102ad9061165e565b600580549060006106d983611735565b9190505550565b6001600160a01b0385163314806106fc57506106fc85336101e9565b61075a5760405162461bcd60e51b815260206004820152602960248201527f455243313135353a2063616c6c6572206973206e6f74206f776e6572206e6f7260448201526808185c1c1c9bdd995960ba1b60648201526084016102ad565b6104528585858585610c0f565b3361077061060d565b6001600160a01b0316146107965760405162461bcd60e51b81526004016102ad9061165e565b6001600160a01b0381166107fb5760405162461bcd60e51b815260206004820152602660248201527f4f776e61626c653a206e6577206f776e657220697320746865207a65726f206160448201526564647265737360d01b60648201526084016102ad565b610804816109e4565b50565b81518351146108695760405162461bcd60e51b815260206004820152602860248201527f455243313135353a2069647320616e6420616d6f756e7473206c656e677468206044820152670dad2e6dac2e8c6d60c31b60648201526084016102ad565b6001600160a01b03841661088f5760405162461bcd60e51b81526004016102ad906115cf565b3360005b84518110156109765760008582815181106108b0576108b0611766565b6020026020010151905060008583815181106108ce576108ce611766565b602090810291909101810151600084815280835260408082206001600160a01b038e16835290935291909120549091508181101561091e5760405162461bcd60e51b81526004016102ad90611614565b6000838152602081815260408083206001600160a01b038e8116855292528083208585039055908b1682528120805484929061095b9084906116b6565b925050819055505050508061096f90611735565b9050610893565b50846001600160a01b0316866001600160a01b0316826001600160a01b03167f4a39dc06d4c0dbc64b70af90fd698a233a518aa5d07e595d983b8c0526c8f7fb87876040516109c6929190611546565b60405180910390a46109dc818787878787610d1a565b505050505050565b600380546001600160a01b038381166001600160a01b0319831681179093556040519116919082907f8be0079c531659141344cd1fd0a4f28419497f9722a3daafe3b4186f6b6457e090600090a35050565b6001600160a01b038416610a965760405162461bcd60e51b815260206004820152602160248201527f455243313135353a206d696e7420746f20746865207a65726f206164647265736044820152607360f81b60648201526084016102ad565b33610ab081600087610aa788610e8c565b61045288610e8c565b6000848152602081815260408083206001600160a01b038916845290915281208054859290610ae09084906116b6565b909155505060408051858152602081018590526001600160a01b03808816926000929185169160008051602061184e833981519152910160405180910390a461045281600087878787610ed7565b816001600160a01b0316836001600160a01b03161415610ba25760405162461bcd60e51b815260206004820152602960248201527f455243313135353a2073657474696e6720617070726f76616c20737461747573604482015268103337b91039b2b63360b91b60648201526084016102ad565b6001600160a01b03838116600081815260016020908152604080832094871680845294825291829020805460ff191686151590811790915591519182527f17307eab39ab6107e8899845ad3d59bd9653f200f220920489ca2b5937696c31910160405180910390a3505050565b6001600160a01b038416610c355760405162461bcd60e51b81526004016102ad906115cf565b33610c45818787610aa788610e8c565b6000848152602081815260408083206001600160a01b038a16845290915290205483811015610c865760405162461bcd60e51b81526004016102ad90611614565b6000858152602081815260408083206001600160a01b038b8116855292528083208785039055908816825281208054869290610cc39084906116b6565b909155505060408051868152602081018690526001600160a01b03808916928a8216929186169160008051602061184e833981519152910160405180910390a4610d11828888888888610ed7565b50505050505050565b610d2c846001600160a01b0316610fa8565b156109dc5760405163bc197c8160e01b81526001600160a01b0385169063bc197c8190610d659089908990889088908890600401611490565b602060405180830381600087803b158015610d7f57600080fd5b505af1925050508015610daf575060408051601f3d908101601f19168201909252610dac918101906113d2565b60015b610e5c57610dbb611792565b806308c379a01415610df55750610dd06117ae565b80610ddb5750610df7565b8060405162461bcd60e51b81526004016102ad9190611574565b505b60405162461bcd60e51b815260206004820152603460248201527f455243313135353a207472616e7366657220746f206e6f6e20455243313135356044820152732932b1b2b4bb32b91034b6b83632b6b2b73a32b960611b60648201526084016102ad565b6001600160e01b0319811663bc197c8160e01b14610d115760405162461bcd60e51b81526004016102ad90611587565b60408051600180825281830190925260609160009190602080830190803683370190505090508281600081518110610ec657610ec6611766565b602090810291909101015292915050565b610ee9846001600160a01b0316610fa8565b156109dc5760405163f23a6e6160e01b81526001600160a01b0385169063f23a6e6190610f2290899089908890889088906004016114ee565b602060405180830381600087803b158015610f3c57600080fd5b505af1925050508015610f6c575060408051601f3d908101601f19168201909252610f69918101906113d2565b60015b610f7857610dbb611792565b6001600160e01b0319811663f23a6e6160e01b14610d115760405162461bcd60e51b81526004016102ad90611587565b6001600160a01b03163b151590565b80356001600160a01b0381168114610fce57600080fd5b919050565b600082601f830112610fe457600080fd5b81356020610ff182611693565b604051610ffe8282611709565b8381528281019150858301600585901b8701840188101561101e57600080fd5b60005b8581101561103d57813584529284019290840190600101611021565b5090979650505050505050565b600082601f83011261105b57600080fd5b81356001600160401b038111156110745761107461177c565b60405161108b601f8301601f191660200182611709565b8181528460208386010111156110a057600080fd5b816020850160208301376000918101602001919091529392505050565b6000602082840312156110cf57600080fd5b6110d882610fb7565b9392505050565b600080604083850312156110f257600080fd5b6110fb83610fb7565b915061110960208401610fb7565b90509250929050565b600080600080600060a0868803121561112a57600080fd5b61113386610fb7565b945061114160208701610fb7565b935060408601356001600160401b038082111561115d57600080fd5b61116989838a01610fd3565b9450606088013591508082111561117f57600080fd5b61118b89838a01610fd3565b935060808801359150808211156111a157600080fd5b506111ae8882890161104a565b9150509295509295909350565b600080600080600060a086880312156111d357600080fd5b6111dc86610fb7565b94506111ea60208701610fb7565b9350604086013592506060860135915060808601356001600160401b0381111561121357600080fd5b6111ae8882890161104a565b6000806040838503121561123257600080fd5b61123b83610fb7565b91506020830135801515811461125057600080fd5b809150509250929050565b6000806040838503121561126e57600080fd5b61127783610fb7565b946020939093013593505050565b6000806000806080858703121561129b57600080fd5b6112a485610fb7565b9350602085013592506040850135915060608501356001600160401b038111156112cd57600080fd5b6112d98782880161104a565b91505092959194509250565b600080604083850312156112f857600080fd5b82356001600160401b038082111561130f57600080fd5b818501915085601f83011261132357600080fd5b8135602061133082611693565b60405161133d8282611709565b8381528281019150858301600585901b870184018b101561135d57600080fd5b600096505b848710156113875761137381610fb7565b835260019690960195918301918301611362565b509650508601359250508082111561139e57600080fd5b506113ab85828601610fd3565b9150509250929050565b6000602082840312156113c757600080fd5b81356110d881611837565b6000602082840312156113e457600080fd5b81516110d881611837565b60006020828403121561140157600080fd5b5035919050565b600081518084526020808501945080840160005b838110156114385781518752958201959082019060010161141c565b509495945050505050565b6000815180845260005b818110156114695760208185018101518683018201520161144d565b8181111561147b576000602083870101525b50601f01601f19169290920160200192915050565b6001600160a01b0386811682528516602082015260a0604082018190526000906114bc90830186611408565b82810360608401526114ce8186611408565b905082810360808401526114e28185611443565b98975050505050505050565b6001600160a01b03868116825285166020820152604081018490526060810183905260a06080820181905260009061152890830184611443565b979650505050505050565b6020815260006110d86020830184611408565b6040815260006115596040830185611408565b828103602084015261156b8185611408565b95945050505050565b6020815260006110d86020830184611443565b60208082526028908201527f455243313135353a204552433131353552656365697665722072656a656374656040820152676420746f6b656e7360c01b606082015260800190565b60208082526025908201527f455243313135353a207472616e7366657220746f20746865207a65726f206164604082015264647265737360d81b606082015260800190565b6020808252602a908201527f455243313135353a20696e73756666696369656e742062616c616e636520666f60408201526939103a3930b739b332b960b11b606082015260800190565b6020808252818101527f4f776e61626c653a2063616c6c6572206973206e6f7420746865206f776e6572604082015260600190565b60006001600160401b038211156116ac576116ac61177c565b5060051b60200190565b600082198211156116c9576116c9611750565b500190565b600181811c908216806116e257607f821691505b6020821081141561170357634e487b7160e01b600052602260045260246000fd5b50919050565b601f8201601f191681016001600160401b038111828210171561172e5761172e61177c565b6040525050565b600060001982141561174957611749611750565b5060010190565b634e487b7160e01b600052601160045260246000fd5b634e487b7160e01b600052603260045260246000fd5b634e487b7160e01b600052604160045260246000fd5b600060033d11156117ab5760046000803e5060005160e01c5b90565b600060443d10156117bc5790565b6040516003193d81016004833e81513d6001600160401b0380831160248401831017156117eb57505050505090565b82850191508151818111156118035750505050505090565b843d870101602082850101111561181d5750505050505090565b61182c60208286010187611709565b509095945050505050565b6001600160e01b03198116811461080457600080fdfec3d58168c5ae7397731d063d5bbf3d657854427343f4c083240f7aacaa2d0f62a2646970667358221220e73c1cf8bc7fd3718836bd1fe32e21b7e16bc4959981dfcac085ea832941beda64736f6c63430008070033",
  "immutableReferences": {},
  "source": "// SPDX-License-Identifier: MIT\r\npragma solidity 0.8.7;\r\npragma experimental ABIEncoderV2;\r\n\r\nimport \"@openzeppelin/contracts/token/ERC1155/ERC1155.sol\";\r\nimport \"@openzeppelin/contracts/utils/math/SafeMath.sol\";\r\nimport \"@openzeppelin/contracts/access/Ownable.sol\";\r\n\r\ncontract BlockStreetCert is ERC1155, Ownable {\r\n\r\n    using SafeMath for uint;\r\n\r\n    mapping(uint => address) holders;\r\n    \r\n    uint nextHolder;\r\n    string courseTitle;\r\n    address schoolAddress;\r\n    address tutor;\r\n\r\n    constructor(string memory _courseTitle, address _schoolAddress, address _tutor) ERC1155(\"\"){ \r\n        courseTitle = _courseTitle;\r\n        schoolAddress = _schoolAddress;\r\n        tutor = _tutor;\r\n    }\r\n\r\n    function mint(address _holder, uint256 _id, uint256 _amount, bytes memory data) external onlyOwner {\r\n        _mint(_holder, _id, _amount, \"\");\r\n    }\r\n\r\n    function getBalanceOf(address _holder, uint256 _id) external view {\r\n        balanceOf(_holder, _id);\r\n    }\r\n\r\n    function AddHolders(address _holder) external onlyOwner{\r\n        holders[nextHolder] = _holder;\r\n    }\r\n\r\n    function incraseCertHolders() external onlyOwner{\r\n        nextHolder++;\r\n    }\r\n}\r\n",
  "sourcePath": "C:\\Users\\USER\\Desktop\\Projects\\Blockstreet dao\\contracts\\Certificate.sol",
  "compiler": {
    "name": "solc",
    "version": "0.8.7+commit.e28d00a7.Emscripten.clang"
  },
  "schemaVersion": "3.4.6",
  "updatedAt": "2022-03-30T22:16:36.869Z",
  "devdoc": {
    "kind": "dev",
    "methods": {
      "balanceOf(address,uint256)": {
        "details": "See {IERC1155-balanceOf}. Requirements: - `account` cannot be the zero address."
      },
      "balanceOfBatch(address[],uint256[])": {
        "details": "See {IERC1155-balanceOfBatch}. Requirements: - `accounts` and `ids` must have the same length."
      },
      "isApprovedForAll(address,address)": {
        "details": "See {IERC1155-isApprovedForAll}."
      },
      "owner()": {
        "details": "Returns the address of the current owner."
      },
      "renounceOwnership()": {
        "details": "Leaves the contract without owner. It will not be possible to call `onlyOwner` functions anymore. Can only be called by the current owner. NOTE: Renouncing ownership will leave the contract without an owner, thereby removing any functionality that is only available to the owner."
      },
      "safeBatchTransferFrom(address,address,uint256[],uint256[],bytes)": {
        "details": "See {IERC1155-safeBatchTransferFrom}."
      },
      "safeTransferFrom(address,address,uint256,uint256,bytes)": {
        "details": "See {IERC1155-safeTransferFrom}."
      },
      "setApprovalForAll(address,bool)": {
        "details": "See {IERC1155-setApprovalForAll}."
      },
      "supportsInterface(bytes4)": {
        "details": "See {IERC165-supportsInterface}."
      },
      "transferOwnership(address)": {
        "details": "Transfers ownership of the contract to a new account (`newOwner`). Can only be called by the current owner."
      },
      "uri(uint256)": {
        "details": "See {IERC1155MetadataURI-uri}. This implementation returns the same URI for *all* token types. It relies on the token type ID substitution mechanism https://eips.ethereum.org/EIPS/eip-1155#metadata[defined in the EIP]. Clients calling this function must replace the `\\{id\\}` substring with the actual token type ID."
      }
    },
    "version": 1
  },
  "userdoc": {
    "kind": "user",
    "methods": {},
    "version": 1
  }
}