{
  "contractName": "NewSchool",
  "abi": [
    {
      "anonymous": false,
      "inputs": [
        {
          "indexed": true,
          "internalType": "address",
          "name": "student",
          "type": "address"
        },
        {
          "indexed": true,
          "internalType": "string",
          "name": "courseTitle",
          "type": "string"
        },
        {
          "indexed": true,
          "internalType": "uint256",
          "name": "time",
          "type": "uint256"
        }
      ],
      "name": "CertificateClaimed",
      "type": "event"
    },
    {
      "anonymous": false,
      "inputs": [
        {
          "indexed": true,
          "internalType": "string",
          "name": "courseTitle",
          "type": "string"
        },
        {
          "indexed": true,
          "internalType": "string",
          "name": "courseDescription",
          "type": "string"
        },
        {
          "indexed": true,
          "internalType": "uint256",
          "name": "time",
          "type": "uint256"
        }
      ],
      "name": "CourseAddes",
      "type": "event"
    },
    {
      "anonymous": false,
      "inputs": [
        {
          "indexed": true,
          "internalType": "string",
          "name": "courseTitle",
          "type": "string"
        },
        {
          "indexed": true,
          "internalType": "address",
          "name": "student",
          "type": "address"
        },
        {
          "indexed": true,
          "internalType": "uint256",
          "name": "time",
          "type": "uint256"
        }
      ],
      "name": "CourseCompleted",
      "type": "event"
    },
    {
      "anonymous": false,
      "inputs": [
        {
          "indexed": true,
          "internalType": "address",
          "name": "student",
          "type": "address"
        },
        {
          "indexed": true,
          "internalType": "string",
          "name": "courseTitle",
          "type": "string"
        },
        {
          "indexed": true,
          "internalType": "uint256",
          "name": "time",
          "type": "uint256"
        }
      ],
      "name": "CourseStarted",
      "type": "event"
    },
    {
      "anonymous": false,
      "inputs": [
        {
          "indexed": true,
          "internalType": "string",
          "name": "courseTitle",
          "type": "string"
        },
        {
          "indexed": true,
          "internalType": "bool",
          "name": "state",
          "type": "bool"
        },
        {
          "indexed": true,
          "internalType": "uint256",
          "name": "time",
          "type": "uint256"
        }
      ],
      "name": "CourseStateChanged",
      "type": "event"
    },
    {
      "anonymous": false,
      "inputs": [
        {
          "indexed": true,
          "internalType": "address",
          "name": "previousOwner",
          "type": "address"
        },
        {
          "indexed": true,
          "internalType": "address",
          "name": "newOwner",
          "type": "address"
        }
      ],
      "name": "OwnershipTransferred",
      "type": "event"
    },
    {
      "anonymous": false,
      "inputs": [
        {
          "indexed": true,
          "internalType": "address",
          "name": "student",
          "type": "address"
        },
        {
          "indexed": true,
          "internalType": "uint256",
          "name": "studentId",
          "type": "uint256"
        },
        {
          "indexed": true,
          "internalType": "uint256",
          "name": "time",
          "type": "uint256"
        }
      ],
      "name": "StudentAdded",
      "type": "event"
    },
    {
      "anonymous": false,
      "inputs": [
        {
          "indexed": true,
          "internalType": "string",
          "name": "courseTitle",
          "type": "string"
        },
        {
          "indexed": true,
          "internalType": "address",
          "name": "student",
          "type": "address"
        },
        {
          "indexed": true,
          "internalType": "uint256",
          "name": "time",
          "type": "uint256"
        }
      ],
      "name": "TestFailed",
      "type": "event"
    },
    {
      "anonymous": false,
      "inputs": [
        {
          "indexed": true,
          "internalType": "string",
          "name": "courseTitle",
          "type": "string"
        },
        {
          "indexed": true,
          "internalType": "address",
          "name": "student",
          "type": "address"
        },
        {
          "indexed": true,
          "internalType": "uint256",
          "name": "time",
          "type": "uint256"
        }
      ],
      "name": "TestPassed",
      "type": "event"
    },
    {
      "anonymous": false,
      "inputs": [
        {
          "indexed": true,
          "internalType": "address",
          "name": "student",
          "type": "address"
        },
        {
          "indexed": true,
          "internalType": "uint256",
          "name": "time",
          "type": "uint256"
        }
      ],
      "name": "TestRewardClaimed",
      "type": "event"
    },
    {
      "anonymous": false,
      "inputs": [
        {
          "indexed": true,
          "internalType": "string",
          "name": "courseTitle",
          "type": "string"
        },
        {
          "indexed": true,
          "internalType": "address",
          "name": "student",
          "type": "address"
        },
        {
          "indexed": true,
          "internalType": "uint256",
          "name": "time",
          "type": "uint256"
        }
      ],
      "name": "TestStarted",
      "type": "event"
    },
    {
      "inputs": [],
      "name": "owner",
      "outputs": [
        {
          "internalType": "address",
          "name": "",
          "type": "address"
        }
      ],
      "stateMutability": "view",
      "type": "function",
      "constant": true
    },
    {
      "inputs": [],
      "name": "renounceOwnership",
      "outputs": [],
      "stateMutability": "nonpayable",
      "type": "function"
    },
    {
      "inputs": [
        {
          "internalType": "address",
          "name": "newOwner",
          "type": "address"
        }
      ],
      "name": "transferOwnership",
      "outputs": [],
      "stateMutability": "nonpayable",
      "type": "function"
    },
    {
      "inputs": [
        {
          "internalType": "string",
          "name": "_courseTitle",
          "type": "string"
        },
        {
          "internalType": "string",
          "name": "_description",
          "type": "string"
        },
        {
          "internalType": "address",
          "name": "_tutor",
          "type": "address"
        }
      ],
      "name": "addCourse",
      "outputs": [],
      "stateMutability": "nonpayable",
      "type": "function"
    },
    {
      "inputs": [
        {
          "internalType": "string",
          "name": "_courseTitle",
          "type": "string"
        }
      ],
      "name": "changeCourseState",
      "outputs": [],
      "stateMutability": "nonpayable",
      "type": "function"
    },
    {
      "inputs": [],
      "name": "joinSchool",
      "outputs": [],
      "stateMutability": "nonpayable",
      "type": "function"
    },
    {
      "inputs": [
        {
          "internalType": "string",
          "name": "_courseTitle",
          "type": "string"
        }
      ],
      "name": "startCourse",
      "outputs": [],
      "stateMutability": "nonpayable",
      "type": "function"
    },
    {
      "inputs": [
        {
          "internalType": "string",
          "name": "_courseTitle",
          "type": "string"
        }
      ],
      "name": "takeTest",
      "outputs": [],
      "stateMutability": "nonpayable",
      "type": "function"
    },
    {
      "inputs": [
        {
          "internalType": "string",
          "name": "_courseTitle",
          "type": "string"
        },
        {
          "internalType": "enum NewSchool.Status",
          "name": "status",
          "type": "uint8"
        }
      ],
      "name": "submitTest",
      "outputs": [],
      "stateMutability": "nonpayable",
      "type": "function"
    },
    {
      "inputs": [
        {
          "internalType": "string",
          "name": "_courseTitle",
          "type": "string"
        }
      ],
      "name": "complete",
      "outputs": [],
      "stateMutability": "nonpayable",
      "type": "function"
    },
    {
      "inputs": [
        {
          "internalType": "string",
          "name": "_courseTitle",
          "type": "string"
        }
      ],
      "name": "claimCertificate",
      "outputs": [
        {
          "internalType": "bytes32",
          "name": "",
          "type": "bytes32"
        }
      ],
      "stateMutability": "nonpayable",
      "type": "function"
    },
    {
      "inputs": [],
      "name": "claimReward",
      "outputs": [],
      "stateMutability": "nonpayable",
      "type": "function"
    },
    {
      "inputs": [
        {
          "internalType": "bytes32",
          "name": "_certHash",
          "type": "bytes32"
        },
        {
          "internalType": "string",
          "name": "_courseTitle",
          "type": "string"
        }
      ],
      "name": "verifyCertificate",
      "outputs": [
        {
          "internalType": "string",
          "name": "success",
          "type": "string"
        }
      ],
      "stateMutability": "view",
      "type": "function",
      "constant": true
    },
    {
      "inputs": [
        {
          "internalType": "uint256",
          "name": "_amount",
          "type": "uint256"
        }
      ],
      "name": "updateTestRewards",
      "outputs": [],
      "stateMutability": "nonpayable",
      "type": "function"
    },
    {
      "inputs": [],
      "name": "getTestRewardBalance",
      "outputs": [
        {
          "internalType": "uint256",
          "name": "balance",
          "type": "uint256"
        }
      ],
      "stateMutability": "view",
      "type": "function",
      "constant": true
    },
    {
      "inputs": [],
      "name": "getCourseList",
      "outputs": [
        {
          "internalType": "string[]",
          "name": "",
          "type": "string[]"
        }
      ],
      "stateMutability": "view",
      "type": "function",
      "constant": true
    },
    {
      "inputs": [],
      "name": "getStudentList",
      "outputs": [
        {
          "internalType": "address[]",
          "name": "",
          "type": "address[]"
        }
      ],
      "stateMutability": "view",
      "type": "function",
      "constant": true
    },
    {
      "inputs": [
        {
          "internalType": "string",
          "name": "_courseTitle",
          "type": "string"
        }
      ],
      "name": "getCourse",
      "outputs": [
        {
          "components": [
            {
              "internalType": "string",
              "name": "courseTitle",
              "type": "string"
            },
            {
              "internalType": "string",
              "name": "description",
              "type": "string"
            },
            {
              "internalType": "address",
              "name": "tutor",
              "type": "address"
            },
            {
              "internalType": "uint256",
              "name": "courseId",
              "type": "uint256"
            },
            {
              "internalType": "uint256",
              "name": "courseStudentCount",
              "type": "uint256"
            }
          ],
          "internalType": "struct NewSchool.Course",
          "name": "",
          "type": "tuple"
        }
      ],
      "stateMutability": "view",
      "type": "function",
      "constant": true
    },
    {
      "inputs": [],
      "name": "getCetificate",
      "outputs": [
        {
          "components": [
            {
              "internalType": "address",
              "name": "holder",
              "type": "address"
            },
            {
              "internalType": "address",
              "name": "tutor",
              "type": "address"
            },
            {
              "internalType": "string",
              "name": "courseTitle",
              "type": "string"
            },
            {
              "internalType": "bytes32",
              "name": "certificateHash",
              "type": "bytes32"
            },
            {
              "internalType": "string",
              "name": "message",
              "type": "string"
            }
          ],
          "internalType": "struct NewSchool.Certificate",
          "name": "",
          "type": "tuple"
        }
      ],
      "stateMutability": "view",
      "type": "function",
      "constant": true
    },
    {
      "inputs": [
        {
          "internalType": "string",
          "name": "_courseTitle",
          "type": "string"
        }
      ],
      "name": "getCertHash",
      "outputs": [],
      "stateMutability": "view",
      "type": "function",
      "constant": true
    },
    {
      "inputs": [
        {
          "internalType": "string",
          "name": "_courseTitle",
          "type": "string"
        },
        {
          "internalType": "uint256",
          "name": "_id",
          "type": "uint256"
        }
      ],
      "name": "getNftCert",
      "outputs": [],
      "stateMutability": "view",
      "type": "function",
      "constant": true
    }
  ],
  "bytecode": "0x608060405234801561001057600080fd5b5061001a3361001f565b61006f565b600080546001600160a01b038381166001600160a01b0319831681178455604051919092169283917f8be0079c531659141344cd1fd0a4f28419497f9722a3daafe3b4186f6b6457e09190a35050565b6143de806200007f6000396000f3fe60806040523480156200001157600080fd5b50600436106200011e5760003560e01c8063040c99dc14620001235780631b4fc550146200014d5780631dcc5976146200016657806326939737146200017f57806343b7db7f1462000196578063451734b114620001ad57806354a7f4dc14620001c4578063715018a614620001ce5780637c8c627b14620001d85780638984274914620001ef5780638da5cb5b1462000215578063abbd249d146200022e578063ad932b5c1462000245578063b88a802f146200025c578063d54064a81462000266578063d6ea39b9146200027f578063da6181611462000289578063e79c542814620002af578063f2fde38b14620002c6578063f7b3d3a014620002dd578063faded17914620002f6575b600080fd5b6200013a6200013436600462002211565b6200030d565b6040519081526020015b60405180910390f35b620001646200015e36600462002327565b620007ea565b005b62000170620008a6565b60405162000144919062002450565b620001646200019036600462002211565b6200093e565b62000164620001a736600462002211565b62000b02565b62000164620001be366004620022ab565b62000b5e565b6200013a62000e38565b6200016462000e83565b62000164620001e936600462002251565b62000ec5565b6200020662000200366004620021c7565b62001380565b60405162000144919062002505565b6200021f62001456565b60405162000144919062002423565b620001646200023f36600462002211565b62001465565b620001646200025636600462002211565b6200157d565b6200016462001695565b62000270620017ea565b6040516200014491906200249f565b62000164620018cd565b620002a06200029a36600462002211565b620019cc565b60405162000144919062002673565b62000164620002c036600462002211565b62001b95565b62000164620002d736600462002185565b62001cfb565b620002e762001da4565b60405162000144919062002603565b62000164620003073660046200236f565b62001f87565b33600090815260016020819052604082205460ff161515146200034d5760405162461bcd60e51b815260040162000344906200254f565b60405180910390fd5b336000908152601060205260409081902090516200036d908490620023b7565b9081526040519081900360200190205460ff161515600114620003e15760405162461bcd60e51b815260206004820152602560248201527f436f6d706c6574652074686520636f7572736520616e642074616b6520746865604482015264081d195cdd60da1b606482015260840162000344565b3360009081526008602052604090819020905162000401908490620023b7565b9081526040519081900360200190205460ff161515600114620004385760405162461bcd60e51b81526004016200034490620025d0565b336000818152600460205260408082206001015490519192859290919060059062000465908590620023b7565b908152604051602091819003820181206002015462000496959493926001600160a01b0390911691429101620023d5565b60408051601f198184030181528282528051602091820120336000908152600d9092529190209092508291620004ce908690620023b7565b9081526020016040518091039020819055506040518060a00160405280336001600160a01b031681526020016005856040516200050c9190620023b7565b908152604080519182900360209081019092206002908101546001600160a01b03908116855284840189905284830187905282518084018452601a81527910dbdb99dc985d1d5b185d1a5bdb88165bdd481358591948125d60321b81860152606090950194909452336000908152600a8452829020855181549086166001600160a01b03199182161782558685015160018301805491909716911617909455908401518051620005c59392850192919091019062002025565b506060820151600382015560808201518051620005ed91600484019160209091019062002025565b5050336000908152600460205260408120600301805492509062000611836200276e565b91905055506000600f846040516200062a9190620023b7565b9081526020016040518091039020549050600e846040516200064d9190620023b7565b9081526040519081900360200181205463731133e960e01b8252336004830152602482018390526001604483015260806064830152600060848301526001600160a01b03169063731133e99060a401600060405180830381600087803b158015620006b757600080fd5b505af1158015620006cc573d6000803e3d6000fd5b50505050600e84604051620006e29190620023b7565b9081526040519081900360200181205463af8fbd0560e01b82526001600160a01b03169063af8fbd05906200071c90339060040162002423565b600060405180830381600087803b1580156200073757600080fd5b505af11580156200074c573d6000803e3d6000fd5b50505050600e84604051620007629190620023b7565b908152604080519182900360200182205463edf2199560e01b835290516001600160a01b039091169163edf2199591600480830192600092919082900301818387803b158015620007b257600080fd5b505af1158015620007c7573d6000803e3d6000fd5b505050508080620007d8906200276e565b50919250620007e5915050565b919050565b3360009081526001602081905260409091205460ff16151514620008225760405162461bcd60e51b815260040162000344906200254f565b600e82604051620008349190620023b7565b908152604051908190036020018120546394d45b5960e01b82526001600160a01b0316906394d45b599062000870903390859060040162002437565b60006040518083038186803b1580156200088957600080fd5b505afa1580156200089e573d6000803e3d6000fd5b505050505050565b606033620008b362001456565b6001600160a01b031614620008dc5760405162461bcd60e51b8152600401620003449062002570565b60148054806020026020016040519081016040528092919081815260200182805480156200093457602002820191906000526020600020905b81546001600160a01b0316815260019091019060200180831162000915575b5050505050905090565b3360009081526001602081905260409091205460ff16151514620009765760405162461bcd60e51b815260040162000344906200254f565b600381604051620009889190620023b7565b9081526040519081900360200190205460ff161515600114620009e25760405162461bcd60e51b8152602060048201526011602482015270436f75727365204e6f742061637469766560781b604482015260640162000344565b33600090815260066020908152604082208054600181018255818452928290208451919362000a18939101919085019062002025565b50336000908152601160205260409081902090516001919062000a3d908590620023b7565b9081526040805160209281900383019020805460ff191693151593909317909255336000908152600490915290812060020180549162000a7d836200276e565b919050555060058260405162000a949190620023b7565b908152604051908190036020019020600401805490600062000ab6836200276e565b9190505550428260405162000acc9190620023b7565b6040519081900381209033907ffbcc2a7cc671ed6b7246a6140b1f256916fad1257651f626bb6c24cfd8308ac190600090a45050565b3360009081526001602081905260409091205460ff1615151462000b3a5760405162461bcd60e51b815260040162000344906200254f565b336000908152600d602052604090819020905162000b5a908390620023b7565b5250565b3362000b6962001456565b6001600160a01b03161462000b925760405162461bcd60e51b8152600401620003449062002570565b6001600160a01b03811662000ba657600080fd5b6040518060a00160405280848152602001838152602001826001600160a01b031681526020016015548152602001600081525060058460405162000beb9190620023b7565b9081526020016040518091039020600082015181600001908051906020019062000c1792919062002025565b50602082810151805162000c32926001850192019062002025565b50604082810151600283810180546001600160a01b0319166001600160a01b03938416179055606085015160038086019190915560809095015160049094019390935584166000908152602092909252808220805460ff191660011790555190919062000ca1908690620023b7565b90815260405160209181900382019020805460ff19169215159290921790915560138054600181018255600091909152845162000d06927f66de8ffda797e3de9c05e8fc57b3bf0ec28a930d40b0d285d93c06501cf6a0909092019186019062002025565b506015805490600062000d19836200276e565b9190505550600160038460405162000d329190620023b7565b908152602001604051809103902060006101000a81548160ff021916908315150217905550600083308360405162000d6a90620020b4565b62000d78939291906200251a565b604051809103906000f08015801562000d95573d6000803e3d6000fd5b50905080600e8560405162000dab9190620023b7565b90815260405190819003602001812080546001600160a01b03939093166001600160a01b031990931692909217909155429062000dea908590620023b7565b60405180910390208560405162000e029190620023b7565b604051908190038120907ff0b615c94619de36db003c061aa23ef666f9c6a9c3c89193346e2c4118d890cd90600090a450505050565b33600090815260016020819052604082205460ff1615151462000e6f5760405162461bcd60e51b815260040162000344906200254f565b50336000908152600b602052604090205490565b3362000e8e62001456565b6001600160a01b03161462000eb75760405162461bcd60e51b8152600401620003449062002570565b62000ec3600062001fc0565b565b3360009081526001602081905260409091205460ff1615151462000efd5760405162461bcd60e51b815260040162000344906200254f565b336000908152600960209081526040808320600890925291829020915190919062000f2a908590620023b7565b9081526040519081900360200190205460ff16151560011462000f615760405162461bcd60e51b81526004016200034490620025d0565b3360009081526012602052604090819020905162000f81908590620023b7565b9081526040519081900360200190205460ff161562000f9f57600080fd5b600082600181111562000fb65762000fb6620027a2565b1415620011c257604051806080016040528084815260200160058560405162000fe09190620023b7565b9081526040805160209281900383019020600201546001600160a01b0316835233838301528051808201825260048152635041535360e01b8184015292810192909252815160808101835286815291518493509082019060059062001047908890620023b7565b9081526040805160209281900383019020600201546001600160a01b031683523383830152805180820182526004808252635041535360e01b82850152939091015283546001810185556000948552938190208351805194959093020192620010b4928492019062002025565b506020828101516001830180546001600160a01b039283166001600160a01b03199182161790915560408501516002850180549190931691161790556060830151805162001109926003850192019062002025565b5050601654336000908152600b60205260409020546200112b92509062002010565b336000908152600b6020908152604080832093909355601290528190209051600191906200115b908690620023b7565b908152604051908190036020018120805492151560ff1990931692909217909155429033906200118d908690620023b7565b604051908190038120907f67caa68f6aef17d065626883c04e4c598947ffcacfbd32fff66c587c21e663a990600090a4505050565b6001826001811115620011d957620011d9620027a2565b14156200137b576040518060800160405280848152602001600585604051620012039190620023b7565b9081526040805160209281900383019020600201546001600160a01b0316835233838301528051808201825260048152631190525360e21b818401529281019290925281516080810183528681529151849350908201906005906200126a908890620023b7565b9081526040805160209281900383019020600201546001600160a01b031683523383830152805180820182526004808252631190525360e21b82850152939091015283546001810185556000948552938190208351805194959093020192620012d7928492019062002025565b506020828101516001830180546001600160a01b039283166001600160a01b0319918216179091556040850151600285018054919093169116179055606083015180516200132c926003850192019062002025565b50505042336001600160a01b0316846040516200134a9190620023b7565b604051908190038120907f21795263fe3f832b47ba0fd02d1803d2e8f046cb6f53cae2ef993b80ec350e2690600090a45b505050565b336000908152600d60205260409081902090516060918491620013a5908590620023b7565b9081526020016040518091039020541415620013ec575060408051808201909152601381527215915492519250d0551253d388141054d4d151606a1b602082015262001450565b336000908152600d60205260409081902090518491906200140f908590620023b7565b90815260200160405180910390205414620014505750604080518082019091526013815272494e56414c494420434552544946494341544560681b60208201525b92915050565b6000546001600160a01b031690565b3360009081526001602081905260409091205460ff161515146200149d5760405162461bcd60e51b815260040162000344906200254f565b33600090815260116020526040908190209051620014bd908390620023b7565b9081526040519081900360200190205460ff161515600114620014f45760405162461bcd60e51b81526004016200034490620025a5565b336000908152600860205260409081902090516001919062001518908490620023b7565b908152604051908190036020018120805492151560ff1990931692909217909155429033906200154a908490620023b7565b604051908190038120907f1fb2cbd117143ddb22290d4d9289dde57292857b07a0015228129842cce8ab4790600090a450565b3360009081526001602081905260409091205460ff16151514620015b55760405162461bcd60e51b815260040162000344906200254f565b33600090815260116020526040908190209051620015d5908390620023b7565b9081526040519081900360200190205460ff1615156001146200160c5760405162461bcd60e51b81526004016200034490620025a5565b336000908152601060205260409081902090516001919062001630908490620023b7565b908152604051908190036020018120805492151560ff19909316929092179091554290339062001662908490620023b7565b604051908190038120907f0c5dc4b9d98c69600cc80d62ec624a80847c4004fb4b7f7431a903b4a5f20e7f90600090a450565b3360009081526001602081905260409091205460ff16151514620016cd5760405162461bcd60e51b815260040162000344906200254f565b336000908152600b6020526040902054620017215760405162461bcd60e51b81526020600482015260136024820152724e6f207265776172647320746f20636c61696d60681b604482015260640162000344565b601754336000818152600b60205260409081902054905163a9059cbb60e01b81526001600160a01b039093169263a9059cbb926200176492909160040162002437565b602060405180830381600087803b1580156200177f57600080fd5b505af115801562001794573d6000803e3d6000fd5b505050506040513d601f19601f82011682018060405250810190620017ba9190620021a3565b50604051429033907f0d7473443da3462fff45d02df4c0d797a327beec49a4b8dcfd2cd89e89f2bcb190600090a3565b60606013805480602002602001604051908101604052809291908181526020016000905b82821015620018c4578382906000526020600020018054620018309062002731565b80601f01602080910402602001604051908101604052809291908181526020018280546200185e9062002731565b8015620018af5780601f106200188357610100808354040283529160200191620018af565b820191906000526020600020905b8154815290600101906020018083116200189157829003601f168201915b5050505050815260200190600101906200180e565b50505050905090565b3360009081526001602052604090205460ff1615620018eb57600080fd5b604080516080810182523380825260148054602080850191825260008587018181526060870182815286835260048452888320975188546001600160a01b03919091166001600160a01b031991821617895594516001808a0191909155915160028901555160039097019690965590859052858120805460ff191686179055825494850183558281527fce6d7b5282bd9a3661ae061feed1dbda4e52ab073b1f9285be6e155d9c38d4ec9094018054909116831790555492514293927f5197dba228db11bd01fb3707489ec56141b2290627da8599af73a30506df79f391a4565b62001a086040518060a00160405280606081526020016060815260200160006001600160a01b0316815260200160008152602001600081525090565b60058260405162001a1a9190620023b7565b90815260200160405180910390206040518060a001604052908160008201805462001a459062002731565b80601f016020809104026020016040519081016040528092919081815260200182805462001a739062002731565b801562001ac45780601f1062001a985761010080835404028352916020019162001ac4565b820191906000526020600020905b81548152906001019060200180831162001aa657829003601f168201915b5050505050815260200160018201805462001adf9062002731565b80601f016020809104026020016040519081016040528092919081815260200182805462001b0d9062002731565b801562001b5e5780601f1062001b325761010080835404028352916020019162001b5e565b820191906000526020600020905b81548152906001019060200180831162001b4057829003601f168201915b505050918352505060028201546001600160a01b031660208201526003820154604082015260049091015460609091015292915050565b3362001ba062001456565b6001600160a01b03161462001bc95760405162461bcd60e51b8152600401620003449062002570565b60038160405162001bdb9190620023b7565b9081526040519081900360200190205460ff1662001c2d57600160038260405162001c079190620023b7565b908152604051908190036020019020805491151560ff1990921691909117905562001c92565b60038160405162001c3f9190620023b7565b9081526040519081900360200190205460ff1615156001141562001c9257600060038260405162001c719190620023b7565b908152604051908190036020019020805491151560ff199092169190911790555b4260038260405162001ca59190620023b7565b9081526040519081900360200181205460ff1615159062001cc8908490620023b7565b604051908190038120907f5fe2063702378533a9f7445d011c714fadc44556602f00155b6b447f8ed43aab90600090a450565b3362001d0662001456565b6001600160a01b03161462001d2f5760405162461bcd60e51b8152600401620003449062002570565b6001600160a01b03811662001d965760405162461bcd60e51b815260206004820152602660248201527f4f776e61626c653a206e6577206f776e657220697320746865207a65726f206160448201526564647265737360d01b606482015260840162000344565b62001da18162001fc0565b50565b6040805160a08101825260008082526020820181905260609282018390528282015260808101919091523360009081526001602081905260409091205460ff1615151462001e065760405162461bcd60e51b815260040162000344906200254f565b336000908152600a6020908152604091829020825160a08101845281546001600160a01b03908116825260018301541692810192909252600281018054929391929184019162001e569062002731565b80601f016020809104026020016040519081016040528092919081815260200182805462001e849062002731565b801562001ed55780601f1062001ea95761010080835404028352916020019162001ed5565b820191906000526020600020905b81548152906001019060200180831162001eb757829003601f168201915b505050505081526020016003820154815260200160048201805462001efa9062002731565b80601f016020809104026020016040519081016040528092919081815260200182805462001f289062002731565b801562001f795780601f1062001f4d5761010080835404028352916020019162001f79565b820191906000526020600020905b81548152906001019060200180831162001f5b57829003601f168201915b505050505081525050905090565b3362001f9262001456565b6001600160a01b03161462001fbb5760405162461bcd60e51b8152600401620003449062002570565b601655565b600080546001600160a01b038381166001600160a01b0319831681178455604051919092169283917f8be0079c531659141344cd1fd0a4f28419497f9722a3daafe3b4186f6b6457e09190a35050565b60006200201e8284620026e3565b9392505050565b828054620020339062002731565b90600052602060002090601f016020900481019282620020575760008555620020a2565b82601f106200207257805160ff1916838001178555620020a2565b82800160010185558215620020a2579182015b82811115620020a257825182559160200191906001019062002085565b50620020b0929150620020c2565b5090565b611bda80620027cf83390190565b5b80821115620020b05760008155600101620020c3565b80356001600160a01b0381168114620007e557600080fd5b600082601f8301126200210357600080fd5b81356001600160401b0380821115620021205762002120620027b8565b604051601f8301601f19908116603f011681019082821181831017156200214b576200214b620027b8565b816040528381528660208588010111156200216557600080fd5b836020870160208301376000602085830101528094505050505092915050565b6000602082840312156200219857600080fd5b6200201e82620020d9565b600060208284031215620021b657600080fd5b815180151581146200201e57600080fd5b60008060408385031215620021db57600080fd5b8235915060208301356001600160401b03811115620021f957600080fd5b6200220785828601620020f1565b9150509250929050565b6000602082840312156200222457600080fd5b81356001600160401b038111156200223b57600080fd5b6200224984828501620020f1565b949350505050565b600080604083850312156200226557600080fd5b82356001600160401b038111156200227c57600080fd5b6200228a85828601620020f1565b925050602083013560028110620022a057600080fd5b809150509250929050565b600080600060608486031215620022c157600080fd5b83356001600160401b0380821115620022d957600080fd5b620022e787838801620020f1565b94506020860135915080821115620022fe57600080fd5b506200230d86828701620020f1565b9250506200231e60408501620020d9565b90509250925092565b600080604083850312156200233b57600080fd5b82356001600160401b038111156200235257600080fd5b6200236085828601620020f1565b95602094909401359450505050565b6000602082840312156200238257600080fd5b5035919050565b60008151808452620023a3816020860160208601620026fe565b601f01601f19169290920160200192915050565b60008251620023cb818460208701620026fe565b9190910192915050565b60008651620023e9818460208b01620026fe565b6001600160601b0319606097881b8116919093019081526014810195909552509190931b1660348201526048810191909152606801919050565b6001600160a01b0391909116815260200190565b6001600160a01b03929092168252602082015260400190565b6020808252825182820181905260009190848201906040850190845b81811015620024935783516001600160a01b0316835292840192918401916001016200246c565b50909695505050505050565b6000602080830181845280855180835260408601915060408160051b870101925083870160005b82811015620024f857603f19888603018452620024e585835162002389565b94509285019290850190600101620024c6565b5092979650505050505050565b6020815260006200201e602083018462002389565b6060815260006200252f606083018662002389565b6001600160a01b0394851660208401529290931660409091015292915050565b60208082526007908201526605369676e2055760cc1b604082015260600190565b6020808252818101527f4f776e61626c653a2063616c6c6572206973206e6f7420746865206f776e6572604082015260600190565b602080825260119082015270476f205374617274204120436f7572736560781b604082015260600190565b602080825260199082015278165bdd4812185d9948151bc815185ad948151a194815195cdd603a1b604082015260600190565b60208152600060018060a01b0380845116602084015280602085015116604084015250604083015160a060608401526200264160c084018262002389565b9050606084015160808401526080840151601f198483030160a08501526200266a828262002389565b95945050505050565b602081526000825160a060208401526200269160c084018262002389565b90506020840151601f19848303016040850152620026b0828262002389565b91505060018060a01b03604085015116606084015260608401516080840152608084015160a08401528091505092915050565b60008219821115620026f957620026f96200278c565b500190565b60005b838110156200271b57818101518382015260200162002701565b838111156200272b576000848401525b50505050565b600181811c908216806200274657607f821691505b602082108114156200276857634e487b7160e01b600052602260045260246000fd5b50919050565b60006000198214156200278557620027856200278c565b5060010190565b634e487b7160e01b600052601160045260246000fd5b634e487b7160e01b600052602160045260246000fd5b634e487b7160e01b600052604160045260246000fdfe60806040523480156200001157600080fd5b5060405162001bda38038062001bda8339810160408190526200003491620001d1565b6040805160208101909152600081526200004e81620000a3565b506200005a33620000bc565b82516200006f9060069060208601906200010e565b50600780546001600160a01b039384166001600160a01b031991821617909155600880549290931691161790555062000327565b8051620000b89060029060208401906200010e565b5050565b600380546001600160a01b038381166001600160a01b0319831681179093556040519116919082907f8be0079c531659141344cd1fd0a4f28419497f9722a3daafe3b4186f6b6457e090600090a35050565b8280546200011c90620002d4565b90600052602060002090601f0160209004810192826200014057600085556200018b565b82601f106200015b57805160ff19168380011785556200018b565b828001600101855582156200018b579182015b828111156200018b5782518255916020019190600101906200016e565b50620001999291506200019d565b5090565b5b808211156200019957600081556001016200019e565b80516001600160a01b0381168114620001cc57600080fd5b919050565b600080600060608486031215620001e757600080fd5b83516001600160401b0380821115620001ff57600080fd5b818601915086601f8301126200021457600080fd5b81518181111562000229576200022962000311565b604051601f8201601f19908116603f0116810190838211818310171562000254576200025462000311565b816040528281526020935089848487010111156200027157600080fd5b600091505b8282101562000295578482018401518183018501529083019062000276565b82821115620002a75760008484830101525b9650620002b9915050868201620001b4565b93505050620002cb60408501620001b4565b90509250925092565b600181811c90821680620002e957607f821691505b602082108114156200030b57634e487b7160e01b600052602260045260246000fd5b50919050565b634e487b7160e01b600052604160045260246000fd5b6118a380620003376000396000f3fe608060405234801561001057600080fd5b50600436106100c45760003560e01c8062fdd58e146100c957806301ffc9a7146100ef5780630e89341c146101125780632eb2c2d6146101325780634e1273f414610147578063715018a614610167578063731133e91461016f5780638da5cb5b1461018257806394d45b59146101a2578063a22cb465146101b5578063af8fbd05146101c8578063e985e9c5146101db578063edf2199514610217578063f242432a1461021f578063f2fde38b14610232575b600080fd5b6100dc6100d736600461125b565b610245565b6040519081526020015b60405180910390f35b6101026100fd3660046113b5565b6102dc565b60405190151581526020016100e6565b6101256101203660046113ef565b61032e565b6040516100e69190611574565b610145610140366004611112565b6103c2565b005b61015a6101553660046112e5565b610459565b6040516100e69190611533565b610145610582565b61014561017d366004611285565b6105bd565b61018a61060d565b6040516001600160a01b0390911681526020016100e6565b6101456101b036600461125b565b61061c565b6101456101c336600461121f565b61062b565b6101456101d63660046110bd565b61063a565b6101026101e93660046110df565b6001600160a01b03918216600090815260016020908152604080832093909416825291909152205460ff1690565b61014561069a565b61014561022d3660046111bb565b6106e0565b6101456102403660046110bd565b610767565b60006001600160a01b0383166102b65760405162461bcd60e51b815260206004820152602b60248201527f455243313135353a2062616c616e636520717565727920666f7220746865207a60448201526a65726f206164647265737360a81b60648201526084015b60405180910390fd5b506000908152602081815260408083206001600160a01b03949094168352929052205490565b60006001600160e01b03198216636cdb3d1360e11b148061030d57506001600160e01b031982166303a24d0760e21b145b8061032857506301ffc9a760e01b6001600160e01b03198316145b92915050565b60606002805461033d906116ce565b80601f0160208091040260200160405190810160405280929190818152602001828054610369906116ce565b80156103b65780601f1061038b576101008083540402835291602001916103b6565b820191906000526020600020905b81548152906001019060200180831161039957829003601f168201915b50505050509050919050565b6001600160a01b0385163314806103de57506103de85336101e9565b6104455760405162461bcd60e51b815260206004820152603260248201527f455243313135353a207472616e736665722063616c6c6572206973206e6f74206044820152711bdddb995c881b9bdc88185c1c1c9bdd995960721b60648201526084016102ad565b6104528585858585610807565b5050505050565b606081518351146104be5760405162461bcd60e51b815260206004820152602960248201527f455243313135353a206163636f756e747320616e6420696473206c656e677468604482015268040dad2e6dac2e8c6d60bb1b60648201526084016102ad565b600083516001600160401b038111156104d9576104d961177c565b604051908082528060200260200182016040528015610502578160200160208202803683370190505b50905060005b845181101561057a5761054d85828151811061052657610526611766565b602002602001015185838151811061054057610540611766565b6020026020010151610245565b82828151811061055f5761055f611766565b602090810291909101015261057381611735565b9050610508565b509392505050565b3361058b61060d565b6001600160a01b0316146105b15760405162461bcd60e51b81526004016102ad9061165e565b6105bb60006109e4565b565b336105c661060d565b6001600160a01b0316146105ec5760405162461bcd60e51b81526004016102ad9061165e565b61060784848460405180602001604052806000815250610a36565b50505050565b6003546001600160a01b031690565b6106268282610245565b505050565b610636338383610b2e565b5050565b3361064361060d565b6001600160a01b0316146106695760405162461bcd60e51b81526004016102ad9061165e565b600554600090815260046020526040902080546001600160a01b0319166001600160a01b0392909216919091179055565b336106a361060d565b6001600160a01b0316146106c95760405162461bcd60e51b81526004016102ad9061165e565b600580549060006106d983611735565b9190505550565b6001600160a01b0385163314806106fc57506106fc85336101e9565b61075a5760405162461bcd60e51b815260206004820152602960248201527f455243313135353a2063616c6c6572206973206e6f74206f776e6572206e6f7260448201526808185c1c1c9bdd995960ba1b60648201526084016102ad565b6104528585858585610c0f565b3361077061060d565b6001600160a01b0316146107965760405162461bcd60e51b81526004016102ad9061165e565b6001600160a01b0381166107fb5760405162461bcd60e51b815260206004820152602660248201527f4f776e61626c653a206e6577206f776e657220697320746865207a65726f206160448201526564647265737360d01b60648201526084016102ad565b610804816109e4565b50565b81518351146108695760405162461bcd60e51b815260206004820152602860248201527f455243313135353a2069647320616e6420616d6f756e7473206c656e677468206044820152670dad2e6dac2e8c6d60c31b60648201526084016102ad565b6001600160a01b03841661088f5760405162461bcd60e51b81526004016102ad906115cf565b3360005b84518110156109765760008582815181106108b0576108b0611766565b6020026020010151905060008583815181106108ce576108ce611766565b602090810291909101810151600084815280835260408082206001600160a01b038e16835290935291909120549091508181101561091e5760405162461bcd60e51b81526004016102ad90611614565b6000838152602081815260408083206001600160a01b038e8116855292528083208585039055908b1682528120805484929061095b9084906116b6565b925050819055505050508061096f90611735565b9050610893565b50846001600160a01b0316866001600160a01b0316826001600160a01b03167f4a39dc06d4c0dbc64b70af90fd698a233a518aa5d07e595d983b8c0526c8f7fb87876040516109c6929190611546565b60405180910390a46109dc818787878787610d1a565b505050505050565b600380546001600160a01b038381166001600160a01b0319831681179093556040519116919082907f8be0079c531659141344cd1fd0a4f28419497f9722a3daafe3b4186f6b6457e090600090a35050565b6001600160a01b038416610a965760405162461bcd60e51b815260206004820152602160248201527f455243313135353a206d696e7420746f20746865207a65726f206164647265736044820152607360f81b60648201526084016102ad565b33610ab081600087610aa788610e8c565b61045288610e8c565b6000848152602081815260408083206001600160a01b038916845290915281208054859290610ae09084906116b6565b909155505060408051858152602081018590526001600160a01b03808816926000929185169160008051602061184e833981519152910160405180910390a461045281600087878787610ed7565b816001600160a01b0316836001600160a01b03161415610ba25760405162461bcd60e51b815260206004820152602960248201527f455243313135353a2073657474696e6720617070726f76616c20737461747573604482015268103337b91039b2b63360b91b60648201526084016102ad565b6001600160a01b03838116600081815260016020908152604080832094871680845294825291829020805460ff191686151590811790915591519182527f17307eab39ab6107e8899845ad3d59bd9653f200f220920489ca2b5937696c31910160405180910390a3505050565b6001600160a01b038416610c355760405162461bcd60e51b81526004016102ad906115cf565b33610c45818787610aa788610e8c565b6000848152602081815260408083206001600160a01b038a16845290915290205483811015610c865760405162461bcd60e51b81526004016102ad90611614565b6000858152602081815260408083206001600160a01b038b8116855292528083208785039055908816825281208054869290610cc39084906116b6565b909155505060408051868152602081018690526001600160a01b03808916928a8216929186169160008051602061184e833981519152910160405180910390a4610d11828888888888610ed7565b50505050505050565b610d2c846001600160a01b0316610fa8565b156109dc5760405163bc197c8160e01b81526001600160a01b0385169063bc197c8190610d659089908990889088908890600401611490565b602060405180830381600087803b158015610d7f57600080fd5b505af1925050508015610daf575060408051601f3d908101601f19168201909252610dac918101906113d2565b60015b610e5c57610dbb611792565b806308c379a01415610df55750610dd06117ae565b80610ddb5750610df7565b8060405162461bcd60e51b81526004016102ad9190611574565b505b60405162461bcd60e51b815260206004820152603460248201527f455243313135353a207472616e7366657220746f206e6f6e20455243313135356044820152732932b1b2b4bb32b91034b6b83632b6b2b73a32b960611b60648201526084016102ad565b6001600160e01b0319811663bc197c8160e01b14610d115760405162461bcd60e51b81526004016102ad90611587565b60408051600180825281830190925260609160009190602080830190803683370190505090508281600081518110610ec657610ec6611766565b602090810291909101015292915050565b610ee9846001600160a01b0316610fa8565b156109dc5760405163f23a6e6160e01b81526001600160a01b0385169063f23a6e6190610f2290899089908890889088906004016114ee565b602060405180830381600087803b158015610f3c57600080fd5b505af1925050508015610f6c575060408051601f3d908101601f19168201909252610f69918101906113d2565b60015b610f7857610dbb611792565b6001600160e01b0319811663f23a6e6160e01b14610d115760405162461bcd60e51b81526004016102ad90611587565b6001600160a01b03163b151590565b80356001600160a01b0381168114610fce57600080fd5b919050565b600082601f830112610fe457600080fd5b81356020610ff182611693565b604051610ffe8282611709565b8381528281019150858301600585901b8701840188101561101e57600080fd5b60005b8581101561103d57813584529284019290840190600101611021565b5090979650505050505050565b600082601f83011261105b57600080fd5b81356001600160401b038111156110745761107461177c565b60405161108b601f8301601f191660200182611709565b8181528460208386010111156110a057600080fd5b816020850160208301376000918101602001919091529392505050565b6000602082840312156110cf57600080fd5b6110d882610fb7565b9392505050565b600080604083850312156110f257600080fd5b6110fb83610fb7565b915061110960208401610fb7565b90509250929050565b600080600080600060a0868803121561112a57600080fd5b61113386610fb7565b945061114160208701610fb7565b935060408601356001600160401b038082111561115d57600080fd5b61116989838a01610fd3565b9450606088013591508082111561117f57600080fd5b61118b89838a01610fd3565b935060808801359150808211156111a157600080fd5b506111ae8882890161104a565b9150509295509295909350565b600080600080600060a086880312156111d357600080fd5b6111dc86610fb7565b94506111ea60208701610fb7565b9350604086013592506060860135915060808601356001600160401b0381111561121357600080fd5b6111ae8882890161104a565b6000806040838503121561123257600080fd5b61123b83610fb7565b91506020830135801515811461125057600080fd5b809150509250929050565b6000806040838503121561126e57600080fd5b61127783610fb7565b946020939093013593505050565b6000806000806080858703121561129b57600080fd5b6112a485610fb7565b9350602085013592506040850135915060608501356001600160401b038111156112cd57600080fd5b6112d98782880161104a565b91505092959194509250565b600080604083850312156112f857600080fd5b82356001600160401b038082111561130f57600080fd5b818501915085601f83011261132357600080fd5b8135602061133082611693565b60405161133d8282611709565b8381528281019150858301600585901b870184018b101561135d57600080fd5b600096505b848710156113875761137381610fb7565b835260019690960195918301918301611362565b509650508601359250508082111561139e57600080fd5b506113ab85828601610fd3565b9150509250929050565b6000602082840312156113c757600080fd5b81356110d881611837565b6000602082840312156113e457600080fd5b81516110d881611837565b60006020828403121561140157600080fd5b5035919050565b600081518084526020808501945080840160005b838110156114385781518752958201959082019060010161141c565b509495945050505050565b6000815180845260005b818110156114695760208185018101518683018201520161144d565b8181111561147b576000602083870101525b50601f01601f19169290920160200192915050565b6001600160a01b0386811682528516602082015260a0604082018190526000906114bc90830186611408565b82810360608401526114ce8186611408565b905082810360808401526114e28185611443565b98975050505050505050565b6001600160a01b03868116825285166020820152604081018490526060810183905260a06080820181905260009061152890830184611443565b979650505050505050565b6020815260006110d86020830184611408565b6040815260006115596040830185611408565b828103602084015261156b8185611408565b95945050505050565b6020815260006110d86020830184611443565b60208082526028908201527f455243313135353a204552433131353552656365697665722072656a656374656040820152676420746f6b656e7360c01b606082015260800190565b60208082526025908201527f455243313135353a207472616e7366657220746f20746865207a65726f206164604082015264647265737360d81b606082015260800190565b6020808252602a908201527f455243313135353a20696e73756666696369656e742062616c616e636520666f60408201526939103a3930b739b332b960b11b606082015260800190565b6020808252818101527f4f776e61626c653a2063616c6c6572206973206e6f7420746865206f776e6572604082015260600190565b60006001600160401b038211156116ac576116ac61177c565b5060051b60200190565b600082198211156116c9576116c9611750565b500190565b600181811c908216806116e257607f821691505b6020821081141561170357634e487b7160e01b600052602260045260246000fd5b50919050565b601f8201601f191681016001600160401b038111828210171561172e5761172e61177c565b6040525050565b600060001982141561174957611749611750565b5060010190565b634e487b7160e01b600052601160045260246000fd5b634e487b7160e01b600052603260045260246000fd5b634e487b7160e01b600052604160045260246000fd5b600060033d11156117ab5760046000803e5060005160e01c5b90565b600060443d10156117bc5790565b6040516003193d81016004833e81513d6001600160401b0380831160248401831017156117eb57505050505090565b82850191508151818111156118035750505050505090565b843d870101602082850101111561181d5750505050505090565b61182c60208286010187611709565b509095945050505050565b6001600160e01b03198116811461080457600080fdfec3d58168c5ae7397731d063d5bbf3d657854427343f4c083240f7aacaa2d0f62a2646970667358221220e73c1cf8bc7fd3718836bd1fe32e21b7e16bc4959981dfcac085ea832941beda64736f6c63430008070033a2646970667358221220b6abaea808cab58267615e97da65ddb1391f573c2fe755fe49a054cf9a12969764736f6c63430008070033",
  "immutableReferences": {},
  "source": "// SPDX-License-Identifier: MIT\r\npragma solidity 0.8.7;\r\npragma experimental ABIEncoderV2;\r\n\r\nimport \"@openzeppelin/contracts/access/Ownable.sol\";\r\nimport \"@openzeppelin/contracts/utils/math/SafeMath.sol\";\r\nimport \"@openzeppelin/contracts/token/ERC20/IERC20.sol\";\r\nimport \"./Certificate.sol\";\r\n\r\ncontract NewSchool is Ownable {\r\n\r\n    using SafeMath for uint;\r\n\r\n    event CourseAddes(string indexed courseTitle, string indexed courseDescription, uint indexed time);\r\n    event CourseStateChanged(string indexed courseTitle, bool indexed state, uint indexed time);\r\n    event StudentAdded(address indexed student, uint indexed studentId, uint indexed time);\r\n    event CourseStarted(address indexed student, string indexed courseTitle, uint indexed time);\r\n    event TestStarted(string indexed courseTitle, address indexed student, uint indexed time);\r\n    event TestPassed(string indexed courseTitle, address indexed student, uint indexed time);\r\n    event TestFailed(string indexed courseTitle, address indexed student, uint indexed time);\r\n    event CourseCompleted(string indexed courseTitle, address indexed student, uint indexed time);\r\n    event CertificateClaimed(address indexed student, string indexed courseTitle, uint indexed time);\r\n    event TestRewardClaimed(address indexed student, uint indexed time);\r\n\r\n\r\n    enum Status {\r\n        PASS,\r\n        FAIL\r\n    }\r\n\r\n    struct Test {\r\n        string courseTitle;\r\n        address tutor;\r\n        address student;\r\n        string result;\r\n    }\r\n\r\n    struct Course {\r\n        string courseTitle;\r\n        string description;\r\n        address tutor;\r\n        uint courseId;\r\n        uint courseStudentCount;\r\n    }\r\n\r\n    struct Student{\r\n        address addr;\r\n        uint StudentId;\r\n        uint courseStartedCounter;\r\n        uint certificateCounter;\r\n    }\r\n\r\n    struct Certificate{\r\n        address holder;\r\n        address tutor;\r\n        string courseTitle;\r\n        bytes32 certificateHash;\r\n        string message;\r\n    }\r\n\r\n    mapping (address => bool) isStudent;\r\n    mapping (address => bool) isTutor; \r\n    mapping (string => bool) courseStarted;\r\n    mapping (address => Student) studentMap;\r\n    mapping (string => Course) courseMap;\r\n    mapping (address => string[]) studentCourse;\r\n    mapping (string => Test) testMap;\r\n    mapping (address => mapping (string => bool)) hasTakenTest;\r\n    mapping (address => Test[]) studentTest;\r\n    mapping (address => Certificate) certificateMap;\r\n    mapping (address => uint) rewardBalanceMapping;\r\n    mapping (address => mapping (string => Status)) testResultMap;\r\n    mapping (address => mapping (string => bytes32)) certificateHashMap;\r\n    mapping (string => BlockStreetCert) certificateNft;\r\n    mapping (string => uint) nextTokenId;\r\n    mapping (address => mapping (string => bool)) studentCompletedCourse;\r\n    mapping (address => mapping (string => bool)) studentStartedCourse;\r\n    mapping (address => mapping (string => bool)) testRewardClaimed;\r\n\r\n    string[] courseList;\r\n    address[] studentList;\r\n    uint nextCourseId;\r\n    uint private testReward;\r\n    address rewardToken;\r\n\r\n    modifier onlyStudent(){\r\n        require(isStudent[msg.sender] == true, \"Sign Up\");\r\n        _;\r\n    }\r\n \r\n    function addCourse(string memory _courseTitle, string memory _description, address _tutor) external onlyOwner {\r\n        require(_tutor != address(0));\r\n        courseMap[_courseTitle] = Course(_courseTitle, _description, _tutor, nextCourseId, 0);\r\n        isTutor[_tutor] = true;\r\n        courseStarted[_courseTitle] = false;\r\n        courseList.push(_courseTitle);\r\n        nextCourseId++;\r\n        courseStarted[_courseTitle] = true;\r\n\r\n        BlockStreetCert blockCert = new BlockStreetCert(_courseTitle, address(this), _tutor);\r\n        certificateNft[_courseTitle] = blockCert;\r\n\r\n        emit CourseAddes(_courseTitle, _description, block.timestamp);\r\n    }\r\n\r\n    function changeCourseState(string memory _courseTitle) public onlyOwner {\r\n        if(courseStarted[_courseTitle] == false){\r\n            courseStarted[_courseTitle] = true;\r\n        }\r\n        else if(courseStarted[_courseTitle] == true){\r\n            courseStarted[_courseTitle] = false;\r\n        }\r\n        emit CourseStateChanged(_courseTitle, courseStarted[_courseTitle], block.timestamp);\r\n    }\r\n\r\n    function joinSchool() external {\r\n        require(isStudent[msg.sender] == false);\r\n        studentMap[msg.sender] = Student(msg.sender, studentList.length, 0, 0);\r\n        isStudent[msg.sender] = true;\r\n        studentList.push(msg.sender);\r\n\r\n        emit StudentAdded(msg.sender, studentList.length, block.timestamp);\r\n    }\r\n\r\n    function startCourse(string memory _courseTitle) external onlyStudent() { \r\n        require(courseStarted[_courseTitle] == true, \"Course Not active\");\r\n        string[] storage newCourse = studentCourse[msg.sender];\r\n        newCourse.push(_courseTitle);\r\n        studentStartedCourse[msg.sender][_courseTitle] = true;\r\n        studentMap[msg.sender].courseStartedCounter++;\r\n        courseMap[_courseTitle].courseStudentCount++;\r\n\r\n        emit CourseStarted(msg.sender, _courseTitle, block.timestamp);\r\n    }\r\n\r\n    function takeTest(string memory _courseTitle) external onlyStudent {\r\n        require(studentStartedCourse[msg.sender][_courseTitle] == true, \"Go Start A Course\");\r\n        hasTakenTest[msg.sender][_courseTitle] = true;\r\n        \r\n        emit TestStarted(_courseTitle, msg.sender, block.timestamp);\r\n    }\r\n\r\n    function submitTest(string memory _courseTitle, Status status) external onlyStudent(){\r\n        Test[] storage newTest = studentTest[msg.sender];\r\n        require(hasTakenTest[msg.sender][_courseTitle] == true, \"You Have To Take The Test\");\r\n        require(testRewardClaimed[msg.sender][_courseTitle] == false);\r\n        if(status == Status.PASS){\r\n            Test(_courseTitle, courseMap[_courseTitle].tutor, msg.sender, \"PASS\");\r\n            newTest.push(Test(_courseTitle, courseMap[_courseTitle].tutor, msg.sender, \"PASS\"));\r\n            rewardBalanceMapping[msg.sender] = rewardBalanceMapping[msg.sender].add(testReward);\r\n            testRewardClaimed[msg.sender][_courseTitle] = true;\r\n            emit TestPassed(_courseTitle, msg.sender, block.timestamp);\r\n        }\r\n\r\n        else if(status == Status.FAIL){\r\n            Test(_courseTitle, courseMap[_courseTitle].tutor, msg.sender, \"FAIL\");\r\n            newTest.push(Test(_courseTitle, courseMap[_courseTitle].tutor, msg.sender, \"FAIL\"));\r\n\r\n            emit TestFailed(_courseTitle, msg.sender, block.timestamp);\r\n        }\r\n\r\n    }\r\n\r\n    function complete(string memory _courseTitle) external onlyStudent() {\r\n        require(studentStartedCourse[msg.sender][_courseTitle] == true, \"Go Start A Course\");\r\n        studentCompletedCourse[msg.sender][_courseTitle] = true;\r\n\r\n        emit CourseCompleted(_courseTitle, msg.sender, block.timestamp);\r\n   }\r\n\r\n    function claimCertificate(string memory _courseTitle) external onlyStudent() returns(bytes32) {\r\n        require(studentCompletedCourse[msg.sender][_courseTitle] == true, \"Complete the course and take the test\");\r\n        require(hasTakenTest[msg.sender][_courseTitle] == true, \"You Have To Take The Test\");\r\n        \r\n        bytes32 certHash = keccak256(abi.encodePacked(\r\n        _courseTitle, \r\n        msg.sender, \r\n        studentMap[msg.sender].StudentId, \r\n        courseMap[_courseTitle].tutor, \r\n        block.timestamp));\r\n        \r\n        certificateHashMap[msg.sender][_courseTitle] = certHash;\r\n        certificateMap[msg.sender] = Certificate(msg.sender, \r\n        courseMap[_courseTitle].tutor, \r\n        _courseTitle, \r\n        certHash, \"Congratulation You Made It\");\r\n        studentMap[msg.sender].certificateCounter++;\r\n\r\n        uint tokenId = nextTokenId[_courseTitle];\r\n\r\n        BlockStreetCert(certificateNft[_courseTitle]).mint(msg.sender, tokenId, 1, \"\");\r\n        BlockStreetCert(certificateNft[_courseTitle]).AddHolders(msg.sender);\r\n        BlockStreetCert(certificateNft[_courseTitle]).incraseCertHolders();\r\n\r\n        tokenId++;\r\n\r\n        return certHash;\r\n        emit CertificateClaimed(msg.sender, _courseTitle, block.timestamp);\r\n    }\r\n\r\n    function claimReward() external onlyStudent() {\r\n        require(rewardBalanceMapping[msg.sender] > 0, \"No rewards to claim\");\r\n        IERC20(rewardToken).transfer(msg.sender, rewardBalanceMapping[msg.sender]);\r\n\r\n        emit TestRewardClaimed(msg.sender, block.timestamp);\r\n   }\r\n\r\n   function verifyCertificate(bytes32 _certHash, string memory _courseTitle) external view returns(string memory success){\r\n       if(certificateHashMap[msg.sender][_courseTitle] == _certHash){\r\n           return \"VERIFICATION PASSED\";\r\n       } \r\n       else if(certificateHashMap[msg.sender][_courseTitle] != _certHash) {\r\n           return \"INVALID CERTIFICATE\";\r\n       }\r\n   }\r\n\r\n   function updateTestRewards(uint _amount) external onlyOwner {\r\n       testReward = _amount;\r\n   }\r\n\r\n   function getTestRewardBalance() external view onlyStudent returns(uint balance){\r\n       return rewardBalanceMapping[msg.sender];\r\n   }\r\n\r\n   function getCourseList() external view returns(string[] memory){\r\n       return courseList;\r\n   }\r\n\r\n   function getStudentList() external view onlyOwner returns(address[] memory) {\r\n       return studentList;\r\n   }\r\n\r\n    function getCourse(string memory _courseTitle) external view returns(Course memory){\r\n       return courseMap[_courseTitle];\r\n   }\r\n\r\n   function getCetificate() external view onlyStudent returns(Certificate memory){\r\n       return certificateMap[msg.sender];\r\n   }\r\n\r\n   function getCertHash(string memory _courseTitle) external view onlyStudent{\r\n       certificateHashMap[msg.sender][_courseTitle];\r\n   }\r\n\r\n   function getNftCert(string memory _courseTitle, uint _id) external view onlyStudent{\r\n       BlockStreetCert(certificateNft[_courseTitle]).getBalanceOf(msg.sender, _id);\r\n   }\r\n}",
  "sourcePath": "C:\\Users\\USER\\Desktop\\Projects\\Blockstreet dao\\contracts\\NewSchool.sol",
  "compiler": {
    "name": "solc",
    "version": "0.8.7+commit.e28d00a7.Emscripten.clang"
  },
  "schemaVersion": "3.4.6",
  "updatedAt": "2022-03-30T22:16:43.437Z",
  "networkType": "ethereum",
  "devdoc": {
    "kind": "dev",
    "methods": {
      "owner()": {
        "details": "Returns the address of the current owner."
      },
      "renounceOwnership()": {
        "details": "Leaves the contract without owner. It will not be possible to call `onlyOwner` functions anymore. Can only be called by the current owner. NOTE: Renouncing ownership will leave the contract without an owner, thereby removing any functionality that is only available to the owner."
      },
      "transferOwnership(address)": {
        "details": "Transfers ownership of the contract to a new account (`newOwner`). Can only be called by the current owner."
      }
    },
    "version": 1
  },
  "userdoc": {
    "kind": "user",
    "methods": {},
    "version": 1
  }
}